:020000040800F2
:1000000020120020DD010008E1010008E3010008E2
:10001000E5010008E7010008E90100080000000010
:10002000000000000000000000000000EB010008DC
:10003000ED01000800000000EF010008F1010008D8
:10004000F3010008F3010008F3010008F3010008C0
:10005000F3010008F3010008F3010008F3010008B0
:10006000F30100088D1A0008F3010008F3010008ED
:10007000F3010008F3010008F3010008F301000890
:10008000F3010008F3010008F3010008F301000880
:10009000F3010008F3010008F3010008A75300086A
:1000A000F3010008F3010008F3010008F301000860
:1000B00063190008F3010008FB1A0008F3010008A7
:1000C000F3010008F3010008F3010008F301000840
:1000D000F3010008F3010008E30700080921000804
:1000E0007B190008F3010008F301000800F002F892
:1000F00000F05FF80AA090E8000C82448344AAF163
:100100000107DA4501D100F054F8AFF2090EBAE860
:100110000F0013F0010F18BFFB1A43F0010318473B
:10012000E8E8000008E900000A444FF0000C10F86D
:10013000013B13F0070408BF10F8014B1D1108BF65
:1001400010F8015B641E05D010F8016B641E01F805
:10015000016BF9D113F0080F1EBF10F8014BAD1C55
:100160000C1B09D16D1E58BF01F801CBFAD505E073
:1001700014F8016B01F8016B6D1EF9D59142D6D3CD
:10018000704700000023002400250026103A28BFF5
:1001900078C1FBD8520728BF30C148BF0B607047F9
:1001A00064290AF04383002070471FB51FBD10B5B6
:1001B00010BD0AF00BFD1146FFF7F7FF00F02AF81B
:1001C0000AF029FD03B4FFF7F2FF03BC00F068FA60
:1001D00030BF72B662B680F308887047084800479F
:1001E000FEE7FEE7FEE7FEE7FEE7FEE7FEE7FEE7E7
:1001F000FEE7FEE703480449044A054B7047000048
:10020000ED000008200C002020120020200E00200D
:10021000200E0020092000F0EAF9482000F08AF8BA
:10022000022000F0CFF900F0FFFC00F04FFD39484C
:10023000006818B901203849087002E000203649EA
:10024000087000F093FF4FF4E131242000F056FADB
:100250004FF41651242001F0E5FE01F03DFA01F0C3
:1002600093FA01F0C5FA01F02BFB01F04DF801F013
:1002700053FC08F0ECFA08F0FEFA002141F61F40AA
:1002800001F037F902F033FA02F0F2F840E02348C7
:100290000078012804D102F0D9FA00201F49087023
:1002A0001F48007858B108F079FD1D480078401EBD
:1002B0001B4908700846007808B900F04AFE194842
:1002C000007838B909F0F4FB1548007858B908F0FF
:1002D00078FD08E013480078012802D109F09FFD5D
:1002E00001E009F082FC1048007830B10E48007837
:1002F00009F016FF00200C49087001200B49087016
:1003000000200B49087000BF084800780028FBD186
:10031000BDE70000308121426E0000207200002005
:10032000C800002004000020C20000206900002056
:10033000680000204FF0E021096921F004014FF02E
:10034000E0221161C21700EB5272C2F3C702234BC5
:100350001A701946097801EB4102C2EBC1114FF640
:10036000FF7202EAC1011E4A1180704701461B4A12
:1003700012784A434FF0E0235A6100229A61012229
:100380001A6100BF4FF0E022106900F001021AB1BB
:1003900000F48032002AF5D000224FF0E0231A61E9
:1003A0009A61704701460E4A12884A434FF0E02393
:1003B0005A6100229A6101221A6100BF4FF0E022C7
:1003C000106900F001021AB100F48032002AF5D061
:1003D00000224FF0E0231A619A617047CA000020A2
:1003E000CC000020A34A0A400243A34B1A60704786
:1003F0000146072323EA010212029F4B1B1D1868C6
:100400004FF6FF0318409D4B184310439A4B1B1D9A
:10041000186070472DE9F0410746884614461D468E
:100420002846FFF7E5FFC5F1040007FA00F60F20A4
:10043000284100EA0800064306F00F06E21704EB25
:10044000D2625211920002F1E022D2F8002121463C
:10045000E31704EBD3635B11A4EB431C012303FA02
:100460000CF31A432046E31704EBD3635B119B00A4
:1004700003F1E023C3F800218148005D40EA061043
:100480007F490855BDE8F08170B504460B46CE178C
:1004900001EB9676C6F38700CE1701EB9676B61081
:1004A000A1EB8606B606350E764B9B6943F0010339
:1004B000744EB3614FEAB63353F820300F26AE4086
:1004C000B343714E46F82030334653F8203004FAD7
:1004D00005F61E436C4B43F820606C4B1B680126ED
:1004E0008E403343694E336002F0010343B1674BE2
:1004F0000C331B6801268E403343644E0C36336048
:1005000002F0020343B1614B08331E6801238B40A4
:100510001E435E4B08331E6070BD00B50020594974
:100520000861C8601420486100208861C8610846DD
:10053000006840F0010008600846406854490840DF
:100540005049486008460068524908404D490860D3
:100550000846006820F4802008600846406820F4BF
:10056000FE0048600020886000214FF00060FFF727
:1005700039FF00BD10B540480830006840F0040065
:100580003D49083108603F48C06940F080503D490E
:10059000C8614148406840F480703F49486008465F
:1005A000006840F0040008600846006840F002005F
:1005B0000860FFF70DFE10BD3048001D2E49091DD3
:1005C00008607047014649062E4A926942F00102CE
:1005D0002C4B9A612C4A083A526822F0E0622A4B6E
:1005E000083B5A601A4652680A435A60704730B551
:1005F00004460025FFF791FF2248006840F4803050
:100600002049086000BF1F480068400C0028FAD04D
:100610004FF480601B494860A01EC4B20846406881
:1006200040EA844048600846406840F480304860B2
:100630001A48006840F03200184908601148006804
:1006400040F080700F49086000BF0E480068400EFF
:100650000028FAD00B48406840F002000949486081
:1006600005E008484068C0F3870505F00305022D42
:10067000F7D130BD80FFFF1F08ED00E00000FA0554
:1006800000E400E0001002400800014000040140C6
:100690000000FFF8FFFFF6FE00700040002002405F
:1006A000014600BF7047FE4A127802F0800212B184
:1006B000FC4A12785AB900BFFB4A128802F0400285
:1006C000002AF9D0C2B2F84B1B1D1A800AE000BF05
:1006D000F64A128802F04002002AF9D0C2B2F34B67
:1006E0001B1D1A807047F149091D088000BFEF49A2
:1006F000098801F040010029F9D070472DE9F05F29
:1007000005460E4630010CF005FB8146E84905FB25
:1007100001F00CF0FFFA824649460CF0B1F90746A9
:1007200038460CF0BFFA84B220460CF0F3FA834648
:1007300039460CF034FC82464FF083410CF032FB1A
:1007400081460CF0AFFA80464FF6FF7000EA0414C1
:1007500004EB080084B2D748806940F00400D54912
:1007600088610846C06940F40030C861D24800681A
:1007700020F47F40D04908600846006840F40B40F0
:100780000860CD480C30006840F48060CA490C31E4
:100790000860C848006940F48020C64908610846DE
:1007A000006920F480200861C04808300480001DE2
:1007B000008842F20C010843BC490C31088008460D
:1007C000008840F4807008800846008840F02000CF
:1007D00008800223262201210020FFF71BFEBDE82E
:1007E000F09F2DE9FF5FAE48007800F08000002800
:1007F0006AD1AE48008800F02000002863D0A949E3
:10080000097851B9AD490978491CC9B2AB4A117090
:100810000A2902DD0121A34A1170A449091D098892
:10082000C8B2A749097869B9A6490978FE2909D14A
:10083000A5490978FF2905D10121A14A117000219C
:10084000A24A11709E490978012936D1A0499F4AD0
:10085000127888549D490978491C9C4A11709C491A
:100860000978022919D18E49097801F00701012977
:100870000BD08B49097801F00701022905D088497E
:10088000097801F00701032907D1904909780A295D
:100890000AD100218A4A117006E08C49097808299A
:1008A00002D10021864A11708549097829B9894900
:1008B000097841F00101874A117082490978824A1A
:1008C0001170804908708AE17548007800F0800056
:1008D0000028F8D07548008800F020000028F2D0E9
:1008E0007048007850B975480078401CC0B2734910
:1008F00008700A2802DD01206A4908706B48001D53
:10090000008875490870084600784B2803D10120FB
:10091000724908700AE070480078492803D06E4890
:1009200000784A2802D100206C4908706C48007891
:1009300000284DD169480078D0B96748007841282F
:1009400009DB65480078482805DC634800784038B2
:10095000644908703CE060480078082804DC5E4880
:1009600000786049087033E000205E4908702FE08D
:100970005A48007801282BD157480078432806D1DF
:100980000020594908700120584908700FE052486A
:100990000078472806D101205349087000205349A8
:1009A000087004E0002050490870504908704A4817
:1009B0000078412803D048480078452805D14648AA
:1009C000007840384749087002E000204549087027
:1009D000414800787B2802D10120454908703E48F3
:1009E00000787D2802D102204149087040480078F3
:1009F00001280AD1384800783E493F4A1278885485
:100A00003D480078401C3C4908703948007802286D
:100A100045D13848C078502803D1012037490870A3
:100A2000D0E03448C078572803D1012034490870F9
:100A3000C8E03048407823286AD02F4800783149F0
:100A400008706FE02C4909782E4A1278881A0BF04A
:100A500006FC02460B46CDE9000100202A490AF0B7
:100A600077FC06460F4627490978491E214A515C02
:100A7000A1F130000BF0F3FB804632463B460BF011
:100A800055FC04460D46214800680BF05FFF824686
:100A900022462B460BF0A0F9CDE9020139E09EE099
:100AA000BE0000206F0000200048004000440040CD
:100AB00040420F000010024000080140D400002016
:100AC00070000020D6000020D7000020D5000020B4
:100AD0004E020020C00000206B0000208300002098
:100AE0006E00002002000020000000200100002015
:100AF000D800002080020020D900002071000020D2
:100B000072000020DA00002000002440DC000020F9
:100B100058E00BF02FF93449086034480078401E43
:100B2000324908703148007804288BDA3048407820
:100B30003038092845D2DFE800F0050C13181D22D3
:100B4000272C3D00284800680CF090F829490860DF
:100B500037E0254800680CF089F82749086030E044
:100B600021480068254908602BE01F480068244997
:100B7000086026E01C4800682249086021E01A4805
:100B80000068214908601CE0174800681F49086098
:100B900017E0154800680CF085F81D4908800846E4
:100BA00000880CF0B7F804461A490BF069FF1A499F
:100BB000086006E00C4800680CF074F817490880DB
:100BC00000BF00BF00201649087016490870074989
:100BD0000870054908603221054809F097FE002099
:100BE00004B0BDE8F09F0000DC000020DA00002027
:100BF00080020020B4000020B8000020A0000020E7
:100C0000A4000020A8000020AC000020B0000020BC
:100C1000BC0000200050C34714010020BE0000208B
:100C2000D8000020D90000202148806940F004004D
:100C30001F4988611F48006820F070401D49086006
:100C40000846006840F0405008601A4808300068C4
:100C500040F400401749083108601548806940F0A9
:100C60000800134988611448006820F47F00124985
:100C700008600846006840F43300086000200F490F
:100C80000860704718B900210D4A11600FE00D4946
:100C90000968491C0B4A1160814208D1084909685A
:100CA000C943094AC2F8BC110021064A11607047C5
:100CB0000010024004080140040C0140B4812142AC
:100CC000BC012142E0000020000021425F48806911
:100CD00040F008005D4988615D48006820F0706060
:100CE0005B4908600846006840F0006008605848AA
:100CF0000830006840F48040554908310860544885
:100D0000006820F47020524908600846006840F4EA
:100D1000002008604E480830006840F480504C497C
:100D200008310860704701464A48006828B94A48B7
:100D30000088401C484A108002E00020464A10808B
:100D40004448006828B94548007810B90120434A52
:100D5000107043480078B0B940480078012807D1A6
:100D600040480078401C3F4A107001203C4A1070F7
:100D70003C480078022806D100203A4A10703A4ACE
:100D800010800220704733480068012804D10020F9
:100D9000324A1070324A10703248007801281CD153
:100DA00031480088401C304A108010460088884234
:100DB0000ADD29480088884206DA0020294A107096
:100DC000294A10800120DDE723480088884204DD9D
:100DD0000020244A1070244A10800020D2E72348C3
:100DE000007838B11B48006820B900201F490870FE
:100DF0000120704717480068012801D11B4908707D
:100E00000020F6E71A48008840B91248006828B95F
:100E100018480088401C1749088002E00020154946
:100E2000088014480088C82807DD01201049088080
:100E3000002010490880012070470D4800880128D3
:100E400002D100200A4908800020F5E70010024086
:100E5000040C014038812142EA000020E400002017
:100E6000E5000020E6000020E8000020EC00002063
:100E7000F0000020EE00002010B50A4622B1012348
:100E8000FE4C236000BF03E00023FC4C236000BF46
:100E9000002118E00023FA4C236000BF00F080031B
:100EA00023B10123F64C241F236003E00023F44CFC
:100EB000241F236000BF0123F14C23604306180E5A
:100EC00000BF4B1CD9B20829E4DB0123EB4C2360A3
:100ED00000BF10BD30B500241CE004F1B001C8B261
:100EE0000021FFF7C9FF00210846FFF7C5FF0021D9
:100EF0001020FFF7C1FF002508E0E24901EBC50122
:100F0000085D0121FFF7B8FF681CC5B2802DF4DB36
:100F1000601CC4B2082CE0DB30BD00B500218D2080
:100F2000FFF7AAFF00211420FFF7A6FF0021AF2042
:100F3000FFF7A2FF00BD00B500218D20FFF79CFF49
:100F400000211020FFF798FF0021AE20FFF794FF4B
:100F500000BD30B500240CE0002506E00020C949A2
:100F600001EBC5010855681CC5B2802DF6DB601C7D
:100F7000C4B2082CF0DBFFF7ADFF30BDF0B514466E
:100F800000267F2801DC3F2900DDF0BD0B46CF178E
:100F900001EB5777FF10C7F10707FAB2CF1701EB44
:100FA0005777FF10A1EBC707FDB2C5F10707012373
:100FB000BB40DEB24CB1B34B03EBC0039B5C33438D
:100FC000B04F07EBC007BB5408E0AE4B03EBC003C8
:100FD0009B5CB343AB4F07EBC007BB5400BFD4E7E8
:100FE0002DE9F04F80460C4615461E46A346A5F156
:100FF0002000C5B200273EE00C2E07D105EB4500CE
:10100000A14901EB800010F8079004E09F4800EB35
:10101000051010F807904FF0000A26E009F0800054
:1010200028B121464046099AFFF7A8FF09E0099830
:1010300008B9012000E00020024621464046FFF7A3
:101040009DFF4FEA49604FEA1069601CC4B2A4EBEF
:101050000B00B04205D15C4608F1010000F0FF082A
:1010600006E00AF1010000F0FF0ABAF1080FD5DB33
:1010700000BF781CC7B2B742BEDBBDE8F08F10B529
:101080000246012000E050430B1EA1F10104E1B231
:10109000F9D110BD2DE9FF4F81B0074691461E469C
:1010A0000E9D4FF0000A002439E0301B401EC1B2F3
:1010B0000A20FFF7E4FFB9FBF0F00A21B0FBF1F2E0
:1010C00001FB1208BAF1000F16D1701EA04213DD09
:1010D000B8F1000F0ED10120AB4605EBDB714910D2
:1010E00001FB04710090C8B22B4620220299FFF741
:1010F00077FF12E04FF0010A0120AB4605EBDB71F0
:10110000491001FB04710090C8B208F13001CAB265
:101110002B460299FFF764FF00BF601CC4B2B442C3
:10112000C3DB05B0BDE8F08F78B505460E46144622
:1011300018E07A2D03DD002506F11000C6B23A2E24
:1011400004DD002005460646FFF703FF012000905E
:1011500022780C2331462846FFF742FF05F10800AC
:10116000C5B2641C20780028E3D178BD10B548488A
:10117000806940F00800464988614648006820F4CC
:101180007020444908600846006840F40030086058
:101190003F48806940F010003D49886108468069F9
:1011A00040F0010088613C484068C0F313003A49B0
:1011B000486008464068394908433749486038481C
:1011C000006840F48070364908603148006A20F0B9
:1011D00001002F4908623348008820F0010031499E
:1011E00008802F48006820F480702D490860002096
:1011F0002349083908606420FFF7D4F801202A4900
:10120000C1F8B4010021AE20FFF736FE0021D52041
:10121000FFF732FE00215020FFF72EFE0021A8200C
:10122000FFF72AFE00213F20FFF726FE0021D320F2
:10123000FFF722FE00210846FFF71EFE0021402096
:10124000FFF71AFE00218D20FFF716FE0021142063
:10125000FFF712FE00212020FFF70EFE00210220E2
:10126000FFF70AFE0021A120FFF706FE0021C020A3
:10127000FFF702FE0021DA2018E0000090812142F1
:10128000BC012242B20200208ED1000802D6000822
:1012900000100240000C014000100140000020221C
:1012A00000700040306C004000002242FFF7E4FD77
:1012B00000211220FFF7E0FD00218120FFF7DCFD77
:1012C0000021EF20FFF7D8FD0021D920FFF7D4FD42
:1012D0000021F120FFF7D0FD0021DB20FFF7CCFD3E
:1012E00000213020FFF7C8FD0021A420FFF7C4FD36
:1012F0000021A620FFF7C0FD0021AF20FFF7BCFDB5
:10130000FFF727FE10BD00006D48806940F0040023
:101310006B4988616B48006820F470006949086077
:101320006748806940F40070654988610846C06874
:1013300040F40070C8600846C06820F40070C860BF
:101340000846406820F4404048600846406840F441
:10135000004048605C4800685C4908405A490860A1
:101360000846006808600846006820F4807008603D
:10137000081D006820F00200091D0860084600688A
:1013800020F4602008600846006840F4602008608F
:101390000846006840F4801008600846006820F4A1
:1013A0000060086048482830006820F47000464912
:1013B00028310860084600680020086042480C3068
:1013C000006820F4700040490C310860084600684D
:1013D00040F4603008603C48001D006840F00100A7
:1013E0003949091D08600846006840F00800086097
:1013F00000BF3548001D006800F008000028F8D143
:101400003148001D006840F004002F49091D0860A4
:1014100000BF2D48001D006800F004000028F8D12E
:101420007047014628483030006820F01F00264AE7
:101430003032106010460068084310602248001DDA
:10144000006840F48000204A121D106000BF1E4852
:10145000001F006800F002000028F8D01A48483049
:10146000006880B270472DE9F04F87B00520FFF784
:10147000D8FF01900AF00AFF80464FF06632144B05
:101480000AF054FF0022134BCDE902010AF04EFF8F
:101490000022114BCDE904010AF048FF0646002264
:1014A0000E4B0AF055FD044600220D4B0AF050FD8C
:1014B00082460AF0A5FE0690069807B0BDE8F08FB8
:1014C000001002400008014004240140FFFFF0002A
:1014D00066660A4000002640000059400000F03FC8
:1014E0000000B0407748806940F008007549886185
:1014F0007047744A926942F40062724B9A611A46CC
:10150000926942F004029A616F4A12686FF30F0207
:101510006D4B1A601A4612684BF6BB331A436A4B7E
:101520001A606A4A1080121F1180684A103A1288A5
:1015300042F4C042654B103B1A801A46128842F0B2
:1015400060021A801A1F128842F4C0421B1F1A80C0
:101550001A46128842F060021A801A1D128842F45C
:1015600000621B1D1A801A46128842F008021A8077
:101570001A1F128842F400621B1F1A801A46128832
:1015800042F008021A80514A0C3A128842F4805202
:101590004E4B0C3B1A801A46128842F480721A8015
:1015A0001A46128842F010021A801A46128842F037
:1015B00001021A80454A1832128842F40042434B15
:1015C00018331A804FF40042404B2C3B1A801A46C5
:1015D000128842F001021A803A4AD26942F00202AD
:1015E000384BDA611A46926942F008029A61364A2B
:1015F000121F126822F07F42334B1B1F1A601A46DB
:10160000126842F03B421A60314A126822F0FF022F
:101610002F4B1A601A46126842F0BB021A602D4A1C
:101620001080121F11802B4A103A128842F4C042D7
:10163000284B103B1A801A46128842F060021A802A
:101640001A1F128842F4C0421B1F1A801A461288C1
:1016500042F060021A801A1D128842F400621B1DBB
:101660001A801A46128842F008021A801A1F12883D
:1016700042F400621B1F1A801A46128842F00802C8
:101680001A80144A0C3A128842F48052114B0C3BD7
:101690001A801A46128842F480721A801A461288FA
:1016A00042F010021A801A46128842F001021A8093
:1016B000DA13084B2C3B1A801A46128842F00102BA
:1016C0001A80704700100240040801402C2C014091
:1016D000000C01402C04004010B5F748C06940F0F0
:1016E0000100F549C8610846806940F0040088613E
:1016F000F248006820F0FF00F049086008460068E2
:1017000040F044000860C804808940F00100C9042A
:1017100088810846808940F04000888101231C228E
:1017200003211846FEF776FE00204FF08041088521
:101730004FF6FF7088850846008820F440700880C6
:101740000846008820F0600008800846008B40F0C2
:10175000010008830846008B40F480700883084627
:10176000008C20F0020008840846008C20F0200045
:1017700008840846008940F0030008810846008874
:1017800040F00100088010BD10B5CB48806940F0E2
:101790000800C9498861CA48006820F47040C849F7
:1017A00008600846006840F400400860081D0068B2
:1017B00020F07040091D08600846006840F00040B5
:1017C0000860032211460120FEF75EFE03220F216E
:1017D0000120FEF759FE0223092200210846FEF7E8
:1017E00019FE0223282200210846FEF713FE10BD31
:1017F00010B5B148C06940F00400AF49C86108465F
:10180000806940F008008861AD48006820F07F40A2
:10181000AB4908600846006840F088400860A94865
:10182000008840F00100A74908800846008840F081
:101830004000088001231E2203211846FEF7EAFD1E
:101840000020A0491C3108804FF6FF70091D088058
:101850009C480C38008820F440709A490C39088064
:101860000846008820F06000088096480C30008808
:1018700040F0010093490C3108800846008840F48C
:10188000807008808F481430008820F002008D4955
:10189000143108800846008820F02000088089481C
:1018A000001F008840F003008649091F0880854812
:1018B0000C38008840F0010082490C39088010BDC6
:1018C00010B57D48806940F004007B4988617B4801
:1018D000001D006820F07F607849091D08600846F7
:1018E000006840F00860086003220D210020FEF728
:1018F000CBFD03220E210020FEF7C6FD0223282285
:1019000000210846FEF786FD10BD0146022906D0DB
:1019100003290DD0042911D005291ED117E04FF05D
:101920008042928C10B200224FF080439A8416E0DD
:10193000654A10680022644B1A6010E0614A183250
:10194000128810B200225F4B18331A8007E05F4AFA
:10195000106800225D4B1A6001E0002000BF00BF4C
:1019600070474FF08040008A4FF08040008A20F09E
:1019700001004FF08041088270475548006800F42C
:101980000040B0F5004F26D14FF4004050490860A8
:101990005048006801280FD14E483038006828B9F7
:1019A00049480068401C4849086014E046480068FF
:1019B000401E454908600EE046483038006828B9A6
:1019C00041480068401E4049086004E03E48006805
:1019D000401C3D4908603E48006800F40050B0F5E6
:1019E000005F26D14FF40050394908603A4800683A
:1019F00001280FD13848001D006828B93348006815
:101A0000401C3249086014E030480068401E2F49ED
:101A100008600EE03048001D006828B92B480068B7
:101A2000401E2A49086004E028480068401C2749F5
:101A300008602748006800F48040B0F5804F24D14A
:101A40004FF48040224908602348001D006870B9A7
:101A50002148006828B91D480068401C1B490860DF
:101A600013E01A480068401E184908600DE01A4843
:101A7000006828B915480068401E1449086004E051
:101A800012480068401C114908607047082010493E
:101A9000086010483038006800BB0E48006828B95C
:101AA00009480068401C0849086025E006480068AD
:101AB000401E054908601FE0001002400008014078
:101AC000000C01400C080040380000203C000020C1
:101AD000140401403C812142340121420B4800683A
:101AE00028B90B480068401E0949086004E008480E
:101AF0000068401C06490860704706480088054891
:101B0000008820F001000349088070473C81214291
:101B10003800002010080040F748806940F00800B5
:101B2000F5498861F548006820F0FF00F349086036
:101B30000846006840F033000860704710B5EF4871
:101B4000006820F0F000ED4908600846006840F0A9
:101B5000300008600120EA490860EA48D0F8240112
:101B600008B9002010BD0120E549091F0860FEF7F3
:101B7000FDFB0020E349C1F8A401E148803800687A
:101B800008B10020EEE70120FEF7F0FB0020DC4961
:101B9000091F08600120E5E710B5D848006820F06B
:101BA000F000D64908600846006840F03000086040
:101BB0000020D349091F0860D249C1F8A4010120BF
:101BC000FEF7D4FB0120CE49091F0860CD49C1F8BA
:101BD000A401FEF7CBFB10BD10B50024C748006878
:101BE00020F0F000C54908600846006840F0800019
:101BF00008600120C2490860FEF7B8FB0120C14916
:101C0000C1F8A001FEF7B2FB0AE0601CC4B2322C9E
:101C100003DDFFF7C1FF002010BD0120FEF7A6FB8A
:101C2000B748803800680028EFD1B549091F08601F
:101C30000120F1E710B50020B149091F0860AF4845
:101C4000006820F0F000AD4908600846006840F0E8
:101C5000300008600020AB49C1F8A4010120FEF764
:101C600085FB0120A649091F0860FEF77FFB0020C5
:101C7000A449C1F8A00110BD10B50020A049091F5A
:101C800008609E48006820F0F0009C490860084603
:101C9000006840F03000086001209A49C1F8A401B2
:101CA000FEF764FB01209649091F0860FEF75EFB02
:101CB00000209449C1F8A00110BD70B504468F48BA
:101CC000006820F0F0008D4908600846006840F088
:101CD0003000086000208A49091F0860002516E0CE
:101CE000E009874908606006040E0120FEF73EFB0C
:101CF00001208449C1F8A001FEF738FB002080498B
:101D0000091F08600120FEF731FB681CC5B2082DD1
:101D1000E6DB70BD2DE9F04105460E4617469846B4
:101D2000FFF70CFF10B90120BDE8F0816906080E2D
:101D3000FFF7C3FFFFF750FF18B9FFF72DFF012092
:101D4000F2E73046FFF7B9FFFFF746FF00240BE04C
:101D500018F80400FFF7B1FFFFF73EFF18B9FFF7CF
:101D60001BFF0020E0E7641CBC42F1DBFFF714FF1F
:101D70000020D9E770B5054600246048006820F0CF
:101D8000F0005E4908600846006840F08000086086
:101D9000002617E000205A49091F08600220FEF7BC
:101DA000E5FA01205749C1F8A0016006040E544825
:101DB0008038006808B1601CC4B20220FEF7D6FA71
:101DC000701CC6B2082EE5DB15B1FFF733FF01E04A
:101DD000FFF752FF204670BD2DE9F04106460F4641
:101DE00014461D46FFF7AAFE10B90120BDE8F08198
:101DF0007106080EFFF761FFFFF7EEFE18B9FFF757
:101E0000CBFE0120F2E73846FFF757FFFFF7E4FE6D
:101E1000FFF794FE012101EB4601C8B2FFF74DFF29
:101E2000FFF7DAFE0DE0012C04D10020FFF7A2FF3E
:101E3000287003E00120FFF79DFF28706D1C601ED5
:101E4000C4B2002CEFD1FFF7A7FE0020CEE770B59B
:101E500005460E460024FFF771FE2846FFF72DFFCA
:101E6000641CFFF7B9FE3046FFF727FF641CFFF73D
:101E7000B3FEFFF763FE691CC8B2FFF71EFF641CC8
:101E8000FFF7AAFE0020FFF775FF0446FFF784FE68
:101E9000204670BD2DE9F0410746884615461E468E
:101EA0000024FFF74BFE3846FFF707FFFFF794FECD
:101EB0004046FFF702FFFFF78FFEFFF73FFE791C5A
:101EC000C8B2FFF7FAFEFFF787FE00BF0DE0681EFD
:101ED000A04204D00120FFF74DFF305503E0002061
:101EE000FFF748FF3055601CC4B2AC42EFDBFFF790
:101EF00053FE2046BDE8F08100100240040C014072
:101F0000A4812142008021422DE9F04180460D4606
:101F100016461F460024FFF711FE4046FFF7CDFE90
:101F2000FFF75AFE2846FFF7C8FEFFF755FE00BF31
:101F300006E0385DFFF7C1FEFFF74EFE601CC4B23D
:101F4000B442F6DBFFF728FE0120BDE8F08170B552
:101F500005460E46144631462846FFF778FF2070A6
:101F6000012070BD37B504460D4602AB012229465B
:101F70002046FFF7C9FF3EBD2DE9F84307468846D6
:101F800014461D46089E6A4641463846FFF7DFFF65
:101F900028B3601CFF2101FA00F0C4F108012944B4
:101FA000491EFF220A41104300F0FF09C5F1080055
:101FB00006FA00F0C6B2C4F1070006419DF8000021
:101FC00000EA090000909DF80000304300909DF861
:101FD000002041463846FFF7C5FFBDE8F8830020E2
:101FE000FBE7F8B506460F4614461D466A463946D5
:101FF0003046FFF7ACFF2DB10120A0409DF8001046
:10200000084305E00120A0409DF8001021EA0000EF
:10201000C0B200909DF8002039463046FFF7A2FF7D
:10202000F8BD00002DE9F05F05460E4630010AF0CC
:1020300071FE8146EF4905FB01F00AF06BFE824616
:1020400049460AF01DFD074638460AF02BFE84B2C9
:1020500020460AF05FFE834639460AF0A0FF82461A
:102060004FF083410AF09EFE81460AF01BFE804637
:102070004FF6FF7000EA041404EB080084B2DE4857
:10208000806940F00800DC4988610846C06940F476
:102090008020C861D948006820F47F40D749086093
:1020A0000846006840F40B400860D44808300068D7
:1020B00040F48060D14908310860CF48006940F49D
:1020C0008020CD4908610846006920F4802008611D
:1020D000CB480480001D008842F20C010843C84927
:1020E000091D08800846008840F480700880084672
:1020F000008840F0200008800223272201210020D0
:10210000FEF788F9BDE8F09F2DE9FF5FBC4808386D
:10211000008800F0200000287ED0B948001F008809
:10212000B8490870084600784B2803D10120B64909
:1021300008700AE0B3480078492803D0B148007815
:102140004A2802D10020B0490870B0480078002821
:1021500053D1AD480078D0B9AA480078412809DBAE
:10216000A8480078482805DCA64800784038A849E7
:1021700008703CE0A3480078082804DCA1480078F7
:10218000A349087033E00020A14908702FE09E4861
:10219000007801282BD19B480078432806D10020E5
:1021A0009C49087001209C4908700FE09548007810
:1021B000472806D1012097490870002096490870E9
:1021C00004E0002093490870934908708D48007816
:1021D000412803D08B480078452805D189480078EC
:1021E00040388B49087002E00020894908708B480C
:1021F000007840F0010089490870824800787B2807
:1022000002D10120864908707E4800787D2802D1DD
:1022100002208349087000E083E0814800780128AB
:102220000AD1784800787F497F4A127888547E48DE
:102230000078401C7C49087079480078022870D1E9
:102240007848C078502803D101207849087096E07A
:102250007448C078572803D10120754908708EE072
:10226000704840782328F2D06F4800787149087090
:1022700034E06D4909786F4A1278881A09F0EFFF47
:10228000804642460B4600206B4909F061F804463F
:102290000D4668490978491E624A515CA1F1300037
:1022A00009F0DDFF064622462B460AF03FF882463B
:1022B0008B46624800680AF049FB52465B46CDE90E
:1022C000000109F089FDCDE9020109F053FD5B49E8
:1022D000086058480078401E5649087055480078F4
:1022E0000428C6DA4F4840783038092846D2DFE85B
:1022F00000F0050C13191E23282D3E004F480068DE
:102300000AF0B4FC4E49086038E04C4800680AF016
:10231000ADFC4C49086031E0484800684A49086013
:102320002CE039E0454800684849086026E0434809
:1023300000684749086021E0404800684549086056
:102340001CE03E4800684449086017E03B480068CC
:102350000AF0A8FC41490880084600880AF0DAFC27
:1023600004463F490AF08CFB3E49086006E03348CA
:1023700000680AF097FC3C49088000BF00BF0020BD
:1023800027490870284908702A4908702B490860B5
:102390003221244808F0BAFABDE8FF9F334800789C
:1023A000F8B1184800785A281BD000202F4A107026
:1023B00014480078012806DB12480078082802DC5F
:1023C000104801780BE00F480078412807DB0D48E2
:1023D0000078482803DC0B4800784038C1B2084632
:1023E0007047084800785A2802D101201F4A10700F
:1023F0000020F5E740420F0000100240040C0140AD
:10240000084800406A000020830000206E00002081
:10241000020000200000002001000020C100002078
:10242000F4000020B2060020F5000020710000201A
:1024300072000020F600002000002440F800002078
:10244000B4000020B8000020A0000020A40000205C
:10245000A8000020AC000020B0000020BC0000203C
:102460000050C34714010020BE000020FC000020E3
:1024700010B51248806940F0080010498861104882
:10248000006820F470000E4908600846006840F4B7
:10249000000008600A480C30006840F0200008493D
:1024A0000C310860012205211046FDF7EDFF0223E3
:1024B000172219461846FDF7ADFF10BD0010024067
:1024C000000C0140FD48FE494860FE4848607047E6
:1024D000FB48006940F08000F94908617047F848FE
:1024E000C16801F0010008B10120704701F004004B
:1024F00008B10220F9E701F0100008B10320F4E769
:102500000020F2E770B5044600BFFFF7E8FF05467C
:10251000012D00D006E00120FDF728FF601E84B2E7
:10252000002CF2D100BF04B9FF25284670BD70B55C
:102530000546002445F6FF70FFF7E4FF0446C4B9E2
:10254000DF48006940F00200DD4908610846456146
:10255000006940F04000086145F6FF70FFF7D2FFC8
:102560000446012C05D0D648006920F00200D44969
:102570000861204670BD70B505460E46FF20FFF786
:10258000C1FF044694B9CE48006940F00100CC492F
:1025900008612E80FF20FFF7B5FF0446012C05D00F
:1025A000C748006920F00100C5490861204670BD98
:1025B0000146088870472DE9F04105460E4617464A
:1025C000002407E036F814102846FFF7D4FFAD1CAE
:1025D000601C84B2BC42F5DBBDE8F08130B5034637
:1025E0000C461546002207E01846FFF7E1FF24F8E5
:1025F00012009B1C501C82B2AA42F5DB30BD2DE9B3
:10260000F05F80468A461746B8F1006F02D3AE48A5
:10261000804501D3BDE8F09FFFF754FFA8F1006BA0
:102620004FEA9B25CBF34809C9F50074A74200DCAB
:102630003C464EE04FF0006101EB85208A14A3492F
:10264000FFF7CCFF00260BE009EB06009F4931F8AD
:1026500010004FF6FF71884200D003E0701C86B274
:10266000A642F1DB00BFA6421BDA4FF0006101EB8E
:102670008520FFF75CFF002608E03AF8160006EB1D
:102680000901924A22F81100701C86B2A642F4DBBE
:102690004FF0006101EB85208A148C49FFF78BFF16
:1026A00004E0224651464046FFF785FFA74200D18D
:1026B00010E06D1C4FF000090AEB440A08EB4408D7
:1026C000381B87B2B7F5007F02DD4FF4007400E0DD
:1026D0003C46AFE700BFFFF7FBFE00BF9AE713B52C
:1026E0000446012201A92046FFF789FF1CBD10B551
:1026F0000A2277497748FFF771FF754800884FF63F
:10270000FF71884251D17248408888424DD170484B
:102710008088884249D16E48C088884245D16C483B
:102720000089884241D16A48408988423DD1684841
:102730008089884239D16648C089884235D1644849
:10274000008A884231D16248408A88422DD13C209B
:102750006149086040F6B8306049086060486149E6
:10276000086000206049086060486149086061486D
:1027700061490860614908603220614908804FF46E
:10278000E260604908804FF0FF305F4908805D4893
:10279000007800F0080018B100205C4908804AE089
:1027A0004FF6FF705949088045E0494800884A497A
:1027B00008604748408849490860454988880AF0C8
:1027C000A9FA484908604249C8880AF0A3FA46496C
:1027D00008603F4908890AF09DFA454908603C496C
:1027E00048890AF097FA44490860394988890AF00B
:1027F00091FA424908603648C08941490880344806
:10280000008A404908803248408A00B23E49088028
:102810002F48408A4FF6FF71884208D13948007826
:1028200000F0080018B100203849088003E04FF696
:10283000FF7036490880324800880AF06BFA044677
:1028400033490AF01DF93349086010BD10B522481C
:102850000088314908802148008848802148006864
:102860000AF020FA2C4988801F4800680AF01AFAFA
:102870002949C8801E4800680AF014FA26490881D0
:102880001D4800680AF00EFA234948811B48006879
:102890000AF008FA2049888119480088C881194837
:1028A00000884FF63F7108401B490882164800888F
:1028B00048820A220748FFF7A2FE10BD23016745A0
:1028C00000200240AB89EFCD00000108E4060020A3
:1028D0005802002000F80008B4000020B8000020D2
:1028E0000000A041A0000020A400002000004843F8
:1028F000A800002000004041AC000020B0000020F3
:10290000BC000020BE000020240100202601002081
:102910000050C347140100206C0200200246FE480C
:1029200042700170008870470146087800024A78BA
:10293000104400028A7810440002CA78104470479C
:1029400070B504460D461646F448007801281CD19F
:10295000012C1AD1F248008818B90420F1490880E6
:1029600006E0EF480088A84202D10020ED49088027
:10297000EB480088B04205DAE9480088401CE84985
:10298000088002E00020E6490880E448007868BB3F
:10299000012C2BD10420E3490831088041F27070EA
:1029A000091D08800420E049088041F27070091D6B
:1029B00008800420DB4908800020DB4908390880B2
:1029C0006420D84914310880091D0880091D088039
:1029D000091D0880D4490C310880091D0880091D93
:1029E0000880091D08800120CC490870CB48007878
:1029F00001281FD1F4B90020C8490870C8490880CF
:102A0000C8490880002141F61F40FEF772FD0020F2
:102A1000C44914310880091D0880091D0880091D5A
:102A20000880C1490C310880091D0880091D0880F3
:102A3000091D088070BD0146002901DA4A4200E004
:102A40000A4690B270472DE9F04F97B006460F4600
:102A500090461D46209C41464FF07E500AF0A2F958
:102A60003146119009F09EFF2946129009F09AFF15
:102A700013900AF0FBF88146284609F067FFCDE97C
:102A8000100141464FF07E500AF08CF9099009F090
:102A90005DFFCDE90C01384609F058FFCDE904018E
:102AA0000020A24909F040F900224FF08043CDE90F
:102AB000000109F04DFACDE90201DDE9042309F036
:102AC00035FCCDE908014FF03F4130460AF06AF984
:102AD000059009F03BFFCDE90601DDE9082309F087
:102AE0007BF9CDE90A01DDE90C2309F075F9CDE99F
:102AF0000E01DDE9102309F06FF9CDE9120109F0AB
:102B00007FFB8246284609F021FFCDE910014146AE
:102B10004FF07E500AF046F9099009F017FFCDE911
:102B20000C01384609F012FFCDE9040100207F496D
:102B300009F0FAF800224FF08043CDE9000109F0D6
:102B400007FACDE90201DDE9042309F0EFFBCDE945
:102B500008014FF03F4130460AF024F9059009F092
:102B6000F5FECDE90601DDE9082309F005FECDE912
:102B70000A01DDE90C2309F02FF9CDE90E01DDE9A9
:102B8000102309F029F9CDE9120109F039FB834638
:102B90006748007800285DD14846FFF74CFF139046
:102BA0000AF0B8F815905046FFF745FF12900AF06A
:102BB000B1F8139015990AF0C1F906D25046FFF703
:102BC0003AFF13900AF0A6F815905846FFF733FF26
:102BD00012900AF09FF8139015990AF0AFF906D2F7
:102BE0005846FFF728FF13900AF094F815905148C3
:102BF00000680AF077F8139015990AF09FF829D821
:102C00004C4800680AF06EF81390159909F038FFE7
:102C1000149048460AF066F8129014990AF0C2F827
:102C200013900AF023F8814650460AF05BF81290A0
:102C300014990AF0B7F813900AF018F8824658462B
:102C40000AF050F8129014990AF0ACF813900AF0B8
:102C50000DF88346C4F80090C4F804A0C4F808B086
:102C60000020E06017B0BDE8F08F2DE9FF4F91B074
:102C70001E9C119880F000404FF07E5102900AF0A7
:102C800091F805464FF07E5112980AF08BF80646EF
:102C9000DDE9130109F086FE4FF07E5102900AF043
:102CA00081F80746A846AB4685F000400A9085F0BB
:102CB00000400790B14686F000400C90099686F0DF
:102CC00000400690BA460B9708970597494640463C
:102CD00009F068FE5146029009F064FE10905846D3
:102CE0000C9909F05FFE02900B9909F05BFE0F90C2
:102CF000DDE9091009F056FE0290089909F052FE2C
:102D00000E90DDE9061009F04DFE0290059909F0DC
:102D100049FE0D9006480FE0000100202801002028
:102D20002A010020202C0140280400400000084017
:102D30006E000020B40000200078002877D11098A1
:102D400009F094FF0190FFF776FE029009F0E2FF90
:102D500004900F9809F08AFF0090FFF76CFE019035
:102D600009F0D8FF029004990AF0E8F809D20F9808
:102D700009F07CFF0190FFF75EFE029009F0CAFFA8
:102D800004900E9809F072FF0090FFF754FE019036
:102D900009F0C0FF029004990AF0D0F809D20E9809
:102DA00009F064FF0190FFF746FE029009F0B2FFC0
:102DB00004900D9809F05AFF0090FFF73CFE019037
:102DC00009F0A8FF029004990AF0B8F809D20D980A
:102DD00009F04CFF0190FFF72EFE029009F09AFFD8
:102DE0000490FA48006809F07DFF0290049909F008
:102DF000A5FF1CD8F548006809F074FF02900499FB
:102E000009F03EFE03900399109809F0CBFF109053
:102E100003990F9809F0C6FF0F9003990E9809F0D7
:102E2000C1FF0E9003990D9809F0BCFF0D900F980B
:102E300009F01CFF2060109809F018FF60600E98E0
:102E400009F014FFA0600D9809F010FFE06015B0C4
:102E5000BDE8F08F2DE9F04F95B080468946924647
:102E60009B461E9CCDF8508089F00045594650463F
:102E700009F098FD064600200F900D900A900790EB
:102E80002F4685F000400C90099585F00040069093
:102E900086F000400E9086F000400B9086F00040D7
:102EA000089086F00040059039460F9809F07AFDA9
:102EB00002900E9909F076FD1390DDE90C1009F0EF
:102EC00071FD02900B9909F06DFD1290DDE909107A
:102ED00009F068FD0290089909F064FD1190DDE9A0
:102EE000061009F05FFD0290059909F05BFD109056
:102EF000B7480078002877D1139809F0B7FE019001
:102F0000FFF799FD029009F005FF0490129809F06F
:102F1000ADFE0090FFF78FFD019009F0FBFE0290DF
:102F200004990AF00BF809D2129809F09FFE01905B
:102F3000FFF781FD029009F0EDFE0490119809F071
:102F400095FE0090FFF777FD019009F0E3FE0290F7
:102F5000049909F0F3FF09D2119809F087FE019056
:102F6000FFF769FD029009F0D5FE0490109809F072
:102F70007DFE0090FFF75FFD019009F0CBFE02900F
:102F8000049909F0DBFF09D2109809F06FFE019057
:102F9000FFF751FD029009F0BDFE04908B480068D8
:102FA00009F0A0FE0290049909F0C8FE1CD88748D9
:102FB000006809F097FE0290049909F061FD039002
:102FC0000399139809F0EEFE13900399129809F0F3
:102FD000E9FE12900399119809F0E4FE119003990B
:102FE000109809F0DFFE1090129809F03FFE206063
:102FF000139809F03BFE6060119809F037FEA0605D
:10300000109809F033FEE06015B0BDE8F08F2DE9AF
:10301000F04F95B004460E4617461E9DA04686F01A
:103020000049149700200F90C3460B90CDF82080E4
:10303000CA460D90CDF8289007900E900C900990FC
:10304000069051460F9809F0ADFC03900E9909F0D7
:10305000A9FC139058460D9909F0A4FC03900C9913
:1030600009F0A0FC1290DDE90A1009F09BFC039026
:10307000099909F097FC1190DDE9071009F092FC1D
:103080000390069909F08EFC1090514800780028B2
:1030900077D1139809F0EAFD0290FFF7CCFC03907A
:1030A00009F038FE0590129809F0E0FD0190FFF755
:1030B000C2FC029009F02EFE0390059909F03EFF34
:1030C00009D2129809F0D2FD0290FFF7B4FC0390E8
:1030D00009F020FE0590119809F0C8FD0190FFF756
:1030E000AAFC029009F016FE0390059909F026FF4C
:1030F00009D2119809F0BAFD0290FFF79CFC0390E9
:1031000009F008FE0590109809F0B0FD0190FFF756
:1031100092FC029009F0FEFD0390059909F00EFF64
:1031200009D2109809F0A2FD0290FFF784FC0390E9
:1031300009F0F0FD05902548006809F0D3FD0390E3
:10314000059909F0FBFD1CD82048006809F0CAFD6C
:103150000390059909F094FC04900499139809F0E0
:1031600021FE13900499129809F01CFE1290049904
:10317000119809F017FE11900499109809F012FEA9
:103180001090129809F072FD2860139809F06EFDF6
:103190006860119809F06AFDA860109809F066FD52
:1031A000E86015B0BDE8F08F2DE9F84305460E46FE
:1031B00014460848007800F0070068B1012874D070
:1031C000022870D003286FD13BE10000B40000203A
:1031D0006E000020BE000020FE48008800F48070D1
:1031E00080B3FC48008800F48060B0B1FA48006801
:1031F000404209F077FD8146F8480168484609F0E9
:10320000D1FD074684F00048F5483B46424631462A
:1032100000902846FFF717FC43E0EF480068404263
:1032200009F060FD8046ED480168404609F0BAFDAE
:103230000746EB483B462246314600902846FFF7BA
:1032400002FC2EE0FFE7E348008800F48060A8B1AC
:10325000E148006809F046FD8146E04801684846BB
:1032600009F0A0FD074684F00048DD483B46424691
:10327000314600902846FFF7E6FB12E0D64800688A
:1032800009F030FD8046D5480168404609F08AFDC6
:103290000746D3483B462246314600902846FFF772
:1032A000D2FBA2E101E066E031E1CA48008800F407
:1032B000807080B3C748008800F48060B0B1C64811
:1032C0000068404209F00EFD8146C4480168484646
:1032D00009F068FD074684F00048C1483B46424675
:1032E000314600902846FFF7C0FC43E0BA4800682A
:1032F000404209F0F7FC8046B8480168404609F0B2
:1033000051FD0746B6483B462246314600902846C6
:10331000FFF7ABFC2EE0FFE7AE48008800F48060CA
:10332000A8B1AD48006809F0DDFC8146AB480168F2
:10333000484609F037FD074684F00048A8483B4658
:103340004246314600902846FFF78FFC12E0A24823
:10335000006809F0C7FC8046A0480168404609F0B3
:1033600021FD07469E483B462246314600902846AE
:10337000FFF77BFC39E19748008800F4807080B348
:103380009448008800F48060B0B1934800684042DF
:1033900009F0A8FC814691480168484609F002FD01
:1033A000074684F000488E483B464246314600902E
:1033B0002846FFF74FFD43E087480068404209F088
:1033C00091FC804685480168404609F0EBFC0746C1
:1033D00083483B462246314600902846FFF73AFD97
:1033E0002EE0FFE77B48008800F48060A8B17A48AF
:1033F000006809F077FC814678480168484609F082
:10340000D1FC074684F0004875483B4642463146A9
:1034100000902846FFF71EFD12E06F48006809F093
:1034200061FC80466D480168404609F0BBFC0746D8
:103430006B483B462246314600902846FFF70AFD7E
:10344000D3E06448008800F4807080B3614800884D
:1034500000F48060B0B160480068404209F042FC6E
:1034600081465E480168484609F09CFC074684F0A6
:1034700000485B483B464246314600902846FFF7ED
:10348000C6FD43E054480068404209F02BFC8046EA
:1034900052480168404609F085FC074650483B46C3
:1034A0002246314600902846FFF7B1FD2EE0FFE7A7
:1034B0004848008800F48060A8B14748006809F0D7
:1034C00011FC814645480168484609F06BFC0746F7
:1034D00084F0004842483B46424631460090284628
:1034E000FFF795FD12E03C48006809F0FBFB8046C1
:1034F0003A480168404609F055FC074638483B46C3
:103500002246314600902846FFF781FD6DE03148A4
:10351000008800F4807080B32E48008800F480603A
:10352000B0B12D480068404209F0DCFB81462B48D1
:103530000168484609F036FC074684F000482848F0
:103540003B464246314600902846FFF77CFA4CE065
:1035500021480068404209F0C5FB80461F480168C9
:10356000404609F01FFC07461D483B4622463146AF
:1035700000902846FFF767FA37E0FFE71548008814
:1035800000F48060A8B11448006809F0ABFB8146E4
:1035900012480168484609F005FC074684F00048D7
:1035A0000F483B464246314600902846FFF74BFA0B
:1035B0001BE00948006809F095FB80460748016850
:1035C000404609F0EFFB074605483B462246314698
:1035D000009007E0BE0000201C0100201001002028
:1035E000E40A00202846FFF72EFA00BFFB480068D7
:1035F000FB490860F9484068FA490860F748806864
:10360000F9490860F548C068F8490860BDE8F883E2
:10361000F8B505460E461446F548007800F0070058
:1036200030B101283BD0022872D003286FD1A6E028
:10363000EF48008800F48070C0B1ED48008800F4C5
:10364000806050B184F00047E44800233A46314698
:1036500000902846FFF7F7F920E0E04800232246D3
:10366000314600902846FFF7EEF917E0E048008861
:1036700000F4806050B184F00047D84800233A46F7
:10368000314600902846FFF7DEF907E0D3480023D3
:103690002246314600902846FFF7D5F9DCE0D448B1
:1036A000008800F48070C0B1D148008800F48060C8
:1036B00050B184F00047C94800233A463146009093
:1036C0002846FFF7D2FA20E0C448002322463146BC
:1036D00000902846FFF7C9FA17E0C548008800F4B3
:1036E000806050B184F00047BC4800233A46314620
:1036F00000902846FFF7B9FA07E0B84800232246B1
:10370000314600902846FFF7B0FAA5E000E06DE0F2
:10371000B748008800F48070C0B1B548008800F454
:10372000806050B184F00047AC4800233A463146EF
:1037300000902846FFF78EFB20E0A8480023224691
:10374000314600902846FFF785FB17E0A84800881F
:1037500000F4806050B184F00047A04800233A464E
:10376000314600902846FFF775FB07E09B48002391
:103770002246314600902846FFF76CFB6CE09C48DF
:10378000008800F48070C0B19948008800F480601F
:1037900050B184F00047914800233A4631460090EA
:1037A0002846FFF734FC20E08C48002322463146AF
:1037B00000902846FFF72BFC17E08D48008800F4A6
:1037C000806050B184F00047844800233A46314677
:1037D00000902846FFF71BFC07E0804800232246A4
:1037E000314600902846FFF712FC35E080480088FB
:1037F00000F48070C0B17E48008800F4806050B151
:1038000084F00047754800233A4631460090284628
:10381000FFF719F920E07148002322463146009055
:103820002846FFF710F917E07148008800F480601F
:1038300050B184F00047694800233A463146009071
:103840002846FFF700F907E0644800232246314686
:1038500000902846FFF7F7F800BF60480068654908
:1038600008605E484068644908605C488068634955
:1038700008605A48C06862490860F8BD30B5002841
:1038800016DD5B4C248804F4807444B14FF4E15499
:103890005C4D2C80C0F5E1545B4D2C801EE04FF454
:1038A000E154594D2C80C0F5E154564D2C8015E063
:1038B0004F4C248804F4807444B14FF4E154524DC9
:1038C0002C8000F5E1544F4D2C8007E04FF4E1547B
:1038D0004C4D2C8000F5E1544B4D2C8000291ADD15
:1038E000434C248804F4807454B14FF4E154454DA2
:1038F0002D1D2C80C1F5E154434D2D1D2C8024E05D
:103900004FF4E154404D2D1D2C80C1F5E1543D4D47
:103910002D1D2C8019E0364C248804F4807454B199
:103920004FF4E154384D2D1D2C8001F5E154354DF7
:103930002D1D2C8009E04FF4E154324D2D1D2C80BB
:1039400001F5E154304D2D1D2C80002A1ADD284C44
:10395000248804F4807454B14FF4E154294D08359F
:103960002C80C2F5E154284D08352C8024E04FF41A
:10397000E154254D08352C80C2F5E154214D083520
:103980002C8019E01A4C248804F4807454B14FF44C
:10399000E1541D4D08352C8002F5E154194D0835D0
:1039A0002C8009E04FF4E154164D08352C8002F5C7
:1039B000E154154D08352C80002B30DD0C4C24884B
:1039C00004F4807414B34FF4E1540E4D0C352C8084
:1039D000C3F5E1540C4D0C352C8036E0E40A002090
:1039E0005000002054000020580000205C000020FF
:1039F000BE000020280000202C0000203000002005
:103A00003400002034040040342C01404FF4E154D1
:103A1000FE4D2C80C3F5E154FD4D2C8015E0FD4C8E
:103A2000248804F4807444B14FF4E154F74D2C80A1
:103A300003F5E154F64D2C8007E04FF4E154F44DCA
:103A40002C8003F5E154F14D2C8030BDF24909681A
:103A50004242914202DA4142EF4A1160EE4909685E
:103A6000814201DDEC490860EC490968424291421B
:103A700002DA4142E94A1160E8490968814201DD00
:103A8000E6490860E64909684242914202DA414249
:103A9000E34A1160E2490968814201DDE0490860BA
:103AA000E04909684242914202DA4142DD4A11602E
:103AB000DC490968814201DDDA490860704770B568
:103AC000054640F2564085420DDA0124D64800787A
:103AD00010B90120D44908704FF4C8725021012058
:103AE000FEF72EFF1BE0D0480078012816D10124F4
:103AF00040F2744085420ADD4FF4C8725021002024
:103B0000FEF71EFF00240020C749087007E04FF4AD
:103B1000C87250210120FEF713FF00E00024204668
:103B200070BD2DE9F05F05460C4624B3BF48007810
:103B300000F00400F8B1BD48007800F0030030B197
:103B400001280BD002280AD003280DD100E000BFC5
:103B5000B74800684042B749086005E000BFB44874
:103B60000068B449086000BF00BFB048007820F08A
:103B70000400AE490870281BAF4908600846006879
:103B800009F0B0F88346AD480168584609F00AF9D3
:103B90008046A9490968AA4A1268881A09F0A2F859
:103BA0008346A8480168584609F0FCF8814641461A
:103BB00008F0F8FE07469F48006809F093F882462F
:103BC000394608F0EFFE064609F050F899490860BA
:103BD000994800689A490860002C06DA93480078F2
:103BE00040F001009149087007E0002C05DD8F4886
:103BF000007820F001008D4908701DBB14BB8B4874
:103C0000007800F00400E8B98A4800688849086034
:103C10000020884908608548007840F00400834906
:103C200008700846007800F0010028B108460078C6
:103C300040F00200087005E07C48007820F00200A7
:103C40007A4908707B480068BDE8F09F2DE9F05F75
:103C500005460C4624B37C48007800F00400F8B117
:103C60007948007800F0030030B101280BD0022819
:103C70000AD003280DD100E000BF7448006840421C
:103C80007349086005E000BF70480068704908602B
:103C900000BF00BF6C48007820F004006A4908703B
:103CA000281B6C4908600846006809F01BF8834629
:103CB00062480168584609F075F880466549096808
:103CC000654A1268881A09F00DF883465D48016854
:103CD000584609F067F88146414608F063FE0746FA
:103CE0005B48006808F0FEFF8246394608F05AFE3D
:103CF000064608F0BBFF564908605648006856491A
:103D00000860002C06DA5048007840F001004E4967
:103D1000087007E0002C05DD4B48007820F001001A
:103D2000494908701DBB14BB4748007800F00400E7
:103D3000E8B94748006845490860002044490860E0
:103D40004148007840F004003F4908700846007878
:103D500000F0010028B10846007840F00200087029
:103D600005E03948007820F00200374908703848EB
:103D70000068BDE8F09F2DE9F05F05460C4624B3CE
:103D80003648007800F00400F8B13448007800F0BC
:103D9000030030B101280BD002280AD003280DD12E
:103DA00000E000BF2E48006840422E49086005E050
:103DB00000BF2B4800682B49086000BF00BF2748A0
:103DC000007820F0040025490870281B2649086067
:103DD0000846006808F086FF834618480168584680
:103DE00008F0E0FF804620490968204A1268881AD6
:103DF00008F078FF834613480168584608F0D2FF60
:103E00008146414608F0CEFD074631E0402C014096
:103E100040040040BE00002040000020440000207C
:103E2000480000204C0000202C0100207C010020D4
:103E300078010020700100206C010020B0000020FB
:103E400074010020AC000020680100206401002003
:103E50005C01002058010020600100205401002076
:103E60005001002048010020440100204C010020A6
:103E7000FC48006808F036FF8246394608F092FD9B
:103E8000064608F0F3FEF7490860F7480068F7496E
:103E90000860002C06DAF648007840F00100F4498A
:103EA000087007E0002C05DDF148007820F00100E3
:103EB000EF4908701DBB14BBED48007800F004000A
:103EC000E8B9E8480068EB4908600020E549086067
:103ED000E748007840F00400E5490870084600789B
:103EE00000F0010028B10846007840F00200087098
:103EF00005E0DF48007820F00200DD490870D9486D
:103F00000068BDE8F09F2DE9F05F05460C4624B33C
:103F1000D948007800F00400F8B1D748007800F0E4
:103F2000030030B101280BD002280AD003280DD19C
:103F300000E000BFD14800684042D149086005E078
:103F400000BFCE480068CE49086000BF00BFCA4825
:103F5000007820F00400C8490870281BC94908608F
:103F60000846006808F0BEFE8346C7480168584608
:103F700008F018FF8046C3490968C44A1268881AC5
:103F800008F0B0FE8346C2480168584608F00AFFB0
:103F90008146414608F006FD0746B948006808F02A
:103FA000A1FE8246394608F0FDFC064608F05EFE9A
:103FB000B3490860B3480068B4490860002C06DAC9
:103FC000AD48007840F00100AB49087007E0002CD4
:103FD00005DDA948007820F00100A74908701DBB45
:103FE00014BBA548007800F00400E8B9A4480068B4
:103FF000A24908600020A24908609F48007840F06C
:1040000004009D4908700846007800F0010028B1BE
:104010000846007840F00200087005E096480078F5
:1040200020F002009449087095480068BDE8F09FB0
:1040300030B5984C24684542AC4202DA4442954D72
:104040002C60944C2468844201DD924C2060924C98
:1040500024684D42AC4202DA4C428F4D2C608E4CAB
:1040600024688C4201DD8C4C21608C4C24685542C4
:10407000AC4202DA5442894D2C60884C2468944248
:1040800001DD864C2260864C24685D42AC4202DA37
:104090005C42834D2C60824C24689C4201DD804C44
:1040A000236030BD2DE9F0477E48006808F01AFE15
:1040B00006467D480168304608F071FF054608F065
:1040C000D5FD82467948006808F00CFE064678481F
:1040D0000168304608F063FF054608F0C7FD044656
:1040E0007448006808F0FEFD0646734801683046D3
:1040F00008F055FF054608F0B9FD8146BAF1000FFA
:1041000003D114B9B9F1000F0FD00AFB0AF104FB77
:10411000041109FB091008F0A2F8074607F004FE95
:10412000054608F06DF865490860BAF1000F03D143
:1041300014B9B9F1000F0FD0484608F0D3FD054679
:10414000204608F0CFFD0646504608F0CBFD074656
:104150002A463146FFF75CFA59480068FEF76BFCC7
:104160005849096848435549096890FBF1F5564894
:104170000068FEF760FC5349096848434F490968E5
:1041800090FBF1F651480068FEF755FC4D4909686F
:1041900048434A49096890FBF1F74D480068FEF72B
:1041A0004AFC4849096848434449096890FBF1F8CA
:1041B0002B46324639464046FFF73AFF3A480068F8
:1041C00008F054FD374908603948006808F04EFD92
:1041D000364908603848006808F048FD35490860ED
:1041E000BDE8F0872DE9F04704460D46601B08F056
:1041F00079FD38490860084601683748006808F0CA
:10420000D1FB35490860354801683248006808F03C
:10421000D1FE804632480168404608F0C3FD06469C
:104220002D4801682F48006808F0BCFD80462948E9
:1042300001682D48006808F0B5FD8146414608F048
:10424000B1FB0746314608F0ADFB2849086021481C
:104250000068224908602548006808F007FDBDE8AD
:10426000F087000048010020440100204C0100209C
:104270005401002050010020400100203C0100209A
:104280003401002030010020B0000020380100205F
:10429000AC00002040000020440000204800002026
:1042A0004C000020C401002090000020C801002024
:1042B00094000020CC01002098000020D0010020B4
:1042C00034000020B4000020300000202C0000202A
:1042D00028000020B0010020B8010020BC0100200F
:1042E000A8000020A4000020A0000020B4010020AD
:1042F0002DE9F04704460D46601B08F0F3FCFE492B
:10430000086008460168FD48006808F04BFBFB495F
:104310000860FB480168F848006808F04BFE8046DA
:10432000F8480168404608F03DFD0646F34801683C
:10433000F548006808F036FD8046EF480168F3480C
:10434000006808F02FFD8146414608F02BFB074628
:10435000314608F027FBEE490860E7480068E84965
:104360000860EB48006808F081FCBDE8F0872DE9A3
:10437000F04704460D46601B08F0B4FCE5490860B0
:1043800008460168E448006808F00CFBE249086050
:10439000E2480168DF48006808F00CFE8046D94812
:1043A0000168404608F0FEFC0646DB480168D64836
:1043B000006808F0F7FC8046D6480168D3480068DA
:1043C00008F0F0FC8146414608F0ECFA0746314619
:1043D00008F0E8FAD2490860CE480068CF49086082
:1043E000CF48006808F042FCBDE8F0872DE9F047AF
:1043F00004460D46601B08F075FCCA490860084673
:104400000168C948006808F0CDFAC7490860C74884
:104410000168C448006808F0CDFD8046B9480168CD
:10442000404608F0BFFC0646BF480168B648006831
:1044300008F0B8FC8046BB480168B448006808F042
:10444000B1FC8146414608F0ADFA0746314608F016
:10445000A9FAB7490860B3480068B4490860B4488D
:10446000006808F003FCBDE8F0872DE9F041044640
:10447000B04E0125002C7AD1AF480078092878D2B7
:10448000DFE800F0770511212D3D49596500002036
:10449000AA4908603146AA48006808F083FAA8498A
:1044A0000860012567E03146A448006808F07AFA00
:1044B000A24908603146A248006808F073FAA04992
:1044C0000860012557E031469C48006808F06AFA08
:1044D0009A49086000209A49086001254BE031465E
:1044E0009648006808F05EFA94490860314694489E
:1044F000006808F05FFD9249086001253BE000205C
:104500008E49086031468E48006808F053FD8C499A
:10451000086001252FE031468848006808F04AFD10
:104520008649086031468648006808F043FD8449A2
:10453000086001251FE031468048006808F03AFD18
:104540007E49086000207E490860012513E031465D
:104550007A48006808F02EFD7849086031467848AE
:10456000006808F01FFA76490860012503E00DE1B4
:10457000FFE7002500BF00BF7248008840F6B83151
:10458000884219DB7049B1F90410704AB2F9002071
:10459000881A002801DB014600E0414201290BDDB9
:1045A0006948B0F904006949B1F90010401A684936
:1045B000096808446649086055BB664800780128C8
:1045C00011D100205D4908605D49086031466248AC
:1045D000006808F0EFFC6049086000205F4908604F
:1045E0005B49086020E05E480078012811D1002076
:1045F000524908605249086031465748006808F03F
:10460000D1F95549086000205449086050490860B4
:104610000AE0002049490860494908604E4908609D
:10462000504800684D490860012D06D100204949D5
:1046300008704B490870484908604B480068404280
:1046400008F050FB07463D480168384608F076FC04
:1046500006D245480068404208F044FB37490860EC
:104660004148006808F03EFB074634480168384678
:1046700008F064FB05D23C48006808F033FB2F4982
:10468000086039480068404208F02CFB07462C4877
:104690000168384608F052FC06D2334800684042B0
:1046A00008F020FB264908602F48006808F01AFB34
:1046B000074623480168384608F040FB05D22A48DF
:1046C000006808F00FFB1E49086027480068404258
:1046D00008F008FB074620480168384608F02EFC21
:1046E00006D221480068404208F0FCFA1A490860E6
:1046F0001D4800683AE00000A0010020A801002049
:10470000AC010020A8000020A4000020A000002090
:10471000A401002090010020980100209C010020AD
:104720009401002080010020880100208C010020DD
:10473000840100209A99993E0200002090000020F8
:104740009400002026010020040200202401002003
:104750001C01002000000020980000201001002013
:104760000100002014010020B400002008F0BAFA73
:104770000746FE480168384608F0E0FA05D2FC48D2
:10478000006808F0AFFAF9490860E0E0012CFCD1BC
:10479000F84800780B286FD2DFE800F0D706163211
:1047A000425E6F8B9BB7C700F348006808F09AFA27
:1047B0000746F2480168384608F0F4F8EF49086007
:1047C0000120EF490870C1E0EB48006808F08AFA60
:1047D0000746EC480168384608F0E4F8E949086003
:1047E0000220E7490870E448006808F07BFA0746B1
:1047F000E2480168384608F0D5F8E0490860A5E0CD
:10480000DD48006808F06EFA0746DE480168384661
:1048100008F0C8F8DB4908600320D949087095E022
:10482000D548006808F05EFA0746D6480168384661
:1048300008F0B8F8D34908600420D1490870CE4880
:10484000006808F04FFA0746CC480168384608F07F
:10485000A6FBCA49086079E0C748006808F042FA38
:104860000746C6480168384608F099FBC349086006
:104870000520C349087069E067E0BF48006808F098
:1048800031FA0746BF480168384608F088FBBD4941
:1048900008600620BA490870B748006808F022FA94
:1048A0000746B6480168384608F079FBB349086006
:1048B0004CE0B148006808F015FA0746B1480168B5
:1048C000384608F06CFBAF4908600720AC49087017
:1048D0003CE0A948006808F005FA0746A9480168C5
:1048E000384608F05CFBA74908600820A449087016
:1048F000A148006808F0F6F90746A0480168384664
:1049000008F050F89D49086020E09B48006808F0D6
:10491000E9F9074695480168384608F040FB934995
:10492000086009209649087010E09348006808F074
:10493000D9F907468D480168384608F033F88B49A5
:1049400008600A208E49087000E000BF00BF8E4852
:10495000007800F0010040B18B48007820F00100A1
:1049600089490870C820894908808848008868B14A
:1049700086480088401E854908807C4802687F4838
:10498000016880480068FEF70FFC09E000208049BC
:10499000086080490860002211461046FEF704FCBA
:1049A000BDE8F0812DE9F04F85B07B480078012803
:1049B00004D002287DD003287CD100E000BF7648D7
:1049C000C07900F0040008B9012401E04FF0FF3481
:1049D0007148C07900F0020008B9012501E04FF0EC
:1049E000FF356D4A91785078FDF798FF04906A4A38
:1049F0001179D078FDF792FF83466748C07900F0BF
:104A0000100078B96448C07900F0010008B90126A7
:104A100001E04FF0FF36604A91795079FDF77EFF53
:104A200081463AE04FF000095B48C07900F0010090
:104A300010B94FF0010A01E04FF0FF3A564A917960
:104A40005079FDF76BFF039000205349487188713E
:104A50000846C07920F01000C8715048008800F462
:104A6000006068B103980AFB00F000EBC00101EBA5
:104A7000401047490968A1EB8000454908600CE0F7
:104A800003980AFB00F000EBC00101EB4010404925
:104A9000096801EB80003E490860049802280EDC9A
:104AA0003F48007840F001003D4908700846007812
:104AB00001E0C3E021E220F0020008700AE038487B
:104AC000007840F00200364908700846007820F06F
:104AD00001000870BBF1020F0BDC3148007840F098
:104AE00004002F4908700846007820F0080008707C
:104AF0000AE02B48007840F0080029490870084671
:104B0000007820F004000870B9F1020F06DC244898
:104B1000007840F010002249087005E02048007835
:104B200020F010001E490870049904FB01F008F001
:104B3000D9F81449086005FB0BF008F0D3F80F49C9
:104B4000086006FB09F008F0CDF808490860134832
:104B5000007800F00700022805D01048007800F027
:104B60000700032869D10F4906481DE0980000207E
:104B7000B400002002000020B800002094000020B3
:104B80000301002090000020C1000020C00100208F
:104B90001C0100202001002044020020BE00002053
:104BA000D401002000002041006807F069FFF849A7
:104BB0000860F849F848006807F062FFF6490860A5
:104BC000F449F648006807F05BFFF4490860F048D4
:104BD0000168F34808F0B2F802D2F148EC490860E5
:104BE000F049EB48006808F0A9F802D2ED48E8491E
:104BF0000860E9480168EA4808F0A0F802D2E848ED
:104C0000E5490860E749E448006808F097F802D2EF
:104C1000E448E1490860E1480168E14808F08EF89D
:104C200002D2DF48DD490860DE49DC48006808F050
:104C300085F802D2DB48D94908605EE1DA4800789D
:104C400000F00700E0BBD948C07900F0040008B9C3
:104C5000012401E04FF0FF34D448C07900F0020095
:104C600008B9012501E04FF0FF35D048C07900F0C8
:104C7000010008B9012601E04FF0FF36CB4A9178D8
:104C80005078FDF74BFE6043009008F02BF8C049C8
:104C90000860C64A1179D078FDF740FE684300905D
:104CA00008F020F8BC490860C04A91795079FDF7B6
:104CB00035FE7043009008F015F8B84908601BE114
:104CC000FFE7B948007800F00700012852D1B74843
:104CD000407A00F0040008B9012401E04FF0FF34ED
:104CE000B248407A00F0020008B9012501E04FF017
:104CF000FF35AE48407A00F0010008B9012601E016
:104D00004FF0FF36A948407A00F0080010B94FF084
:104D1000010801E04FF0FF38A44A91785078FDF780
:104D2000FDFD6043009007F0DDFF994908609F4A50
:104D30001179D078FDF7F2FD6843009007F0D2FFBB
:104D400095490860994A91795079FDF7E7FD7043DC
:104D5000009007F0C7FF91490860944A117AD07912
:104D6000FDF7DCFD00FB08F0009007F0BBFF904969
:104D70000860C1E08C48007800F00700022805D0E8
:104D80008948007800F00700032898D18748407AC6
:104D900000F0040008B9012401E04FF0FF3483481B
:104DA000407A00F0020008B9012501E04FF0FF351C
:104DB0007E48407A00F0010008B9012601E04FF07A
:104DC000FF367A48407A00F0080010B94FF0010829
:104DD00001E04FF0FF38754A91785078FDF79EFD5D
:104DE0006043009007F07EFF694908606F4A1179BF
:104DF000D078FDF793FD6843009007F073FF664994
:104E000008606A4A91795079FDF788FD70430090F7
:104E100007F068FF61490860644A117AD079FDF7AC
:104E20007DFD00FB08F0009007F05CFF6049086022
:104E300058495748006807F023FE5549086055490E
:104E40005548006807F01CFE534908605149534813
:104E5000006807F015FE514908604E495448006843
:104E600007F00EFE52490860494801684C4807F0B7
:104E700065FF02D24A48464908604A4944480068EA
:104E800007F05CFF02D24748414908604248016888
:104E9000434807F053FF02D241483F490860414967
:104EA0003D48006807F04AFF02D23E483A49086090
:104EB0003A4801683A4807F041FF02D2384837497A
:104EC000086038493548006807F038FF02D2354895
:104ED0003249086036480168314807F02FFF02D296
:104EE0002F48334908602F493148006807F026FFF2
:104EF00002D22C482E49086000BF00BF2B48007822
:104F0000802802D0C82842D120E1284A91785078E0
:104F1000FDF704FD0746B7F5004F6CD1234A117920
:104F2000D078FDF7FBFC0746B7F5004F62D11F4A6A
:104F300091795079FDF7F2FC0746012F02D1FDF778
:104F4000D6FB56E0022F4FD13C201A49086040F6AC
:104F5000B8301949086019481949086000201949F2
:104F6000086019481949086019481A4908601A491F
:104F700008603220194908804FF4E2600A4908802D
:104F8000F81E17490880000C1649088032E0E1E05D
:104F90009000002000002041940000209800002094
:104FA0000000C8420000C8C2BE0000204402002029
:104FB0009C000020B4000020B80000200000A041A8
:104FC000A0000020A400002000004843A80000200A
:104FD00000004041AC000020B0000020BC000020D8
:104FE0002401002026010020032F02D10120FE49C8
:104FF000087000BFA9E06FF40040384428281CD294
:10500000DFE800F0141C242E38424C56677EA2A222
:10501000A2A2A2A28788898A8B8C8D8E8F90A2A251
:10502000A2A2A295969798999A9B9C9DEF4A9179F6
:105030005079FDF773FCEE49086085E0EB4A917901
:105040005079FDF76BFCEB4908607DE0E748C01C38
:10505000FDF76AFC009007F05DFEE749086073E029
:10506000E248C01CFDF760FC009007F053FEE349E6
:10507000086069E0DD48C01CFDF756FC009007F0B1
:1050800049FEDF4908605FE0D848C01CFDF74CFCD2
:10509000009007F03FFEDB49086055E0D348C01C94
:1050A000FDF742FC009007F035FED74908604BE061
:1050B000CE48C01CFDF738FCD4490880084600885B
:1050C00007F028FED249009007F0DAFCD1490860C9
:1050D0003AE0C64A91795079FDF720FCCE49088024
:1050E0000846007800F0400018B10120CB49087054
:1050F00005E0CA48007820F00100C849087023E0A4
:10510000BA4A91795079FDF709FC00B2C449088088
:105110001AE000BF00BF00BF00BF00BF00BF00BF5C
:1051200000BF00BF07F00F00BE4908700CE000BFD1
:1051300000BF00BF00BF00BF00BF00BF00BF07F03F
:105140002F00B849087000BF00BF03E00120FBF743
:1051500039FA00BF00BFB448007800F0010088B100
:10516000A2480078032804DDA048002101604160C6
:105170000181AD48007820F00100AB490870322071
:10518000AA490880AA48008840F6B831884245DB21
:10519000A148007800F0080028B3A148008880B238
:1051A0004FF6FF71884239D09B48008800F40060B8
:1051B000D0B1A049B1F90410994AB2F90020881A77
:1051C000002801DB014600E04142072926DD99481D
:1051D000B0F904009249B1F90010401A96490968E3
:1051E000081A9549086019E09249B1F904108C4AEF
:1051F000B2F90020881A002801DB014600E0414294
:1052000007290BDD8B48B0F904008549B1F900107E
:10521000401A89490968084487490860834800881A
:1052200000287DD08548007828B980480088401E35
:105230007E49088002E000207F4908606B480078C2
:10524000012804D002282AD0032827D16CE0724814
:10525000007800F0100050B97948007800F005009F
:10526000052804D100207749086073490860744814
:10527000007800F0100020B16648006871490860AD
:1052800004E000206F4908606B4908606E480268BE
:105290006E4801686E480068FDF786FF65E05E486D
:1052A000007800F0070090B96948006807F0DEFC5C
:1052B000684908606548006807F0D8FC66490860DE
:1052C0006148006807F0D2FC644908602BE052484E
:1052D000007800F0070001280BD04F48007800F05C
:1052E0000700022805D04C48007800F0070003288A
:1052F00019D15748006807F0B9FC5649086053486F
:10530000006807F0B3FC544908604F48006807F094
:10531000ADFC524908605248006807F0A7FC00E065
:1053200024E05049086020E04548007800F005007E
:10533000052804D10020434908603F4908604048DF
:10534000007800F0100020B1324800683D49086044
:1053500004E000203B490860374908603A48026889
:10536000DDE90110FDF720FF00BF09E0002035490D
:10537000086031490860002211461046FDF714FF0D
:1053800005B0BDE8F08F10B56420FBF7CCFC0446F7
:10539000022C07D12148007808B9012000E0002044
:1053A0001E49087010BD70B52F480068002865D1EF
:1053B00020202E4908602E48007808B9012000E01E
:1053C00000202B4908702B48007801280BD12A486F
:1053D0000078401CC0B2284908700A2803D1002078
:1053E0000870244908704AE072000020440200203E
:1053F000B4000020B8000020A0000020A40000207D
:10540000A8000020AC000020B0000020BC0000205C
:105410000050C34714010020BE00002004000020FB
:1054200024010020C200002005010020D601002038
:1054300026010020040200201C0100206E00002034
:10544000D4010020100100209800002094000020CA
:105450009000002050000020540000205800002040
:105460009C0000205C0000201481214214040140B3
:10547000020100206900002068000020CEE103F056
:105480005BFAE7480078012866D1E6480078E0B981
:10549000E5480078012818D1E448007800F00100C0
:1054A00098B1E348E3490A6802604A6842600989A2
:1054B0000181DE48007820F00100DC490870DE48F8
:1054C000007840F00100DC490870DC480088B0F545
:1054D000FA6F0BDAD9480088401CD84908804FF48D
:1054E000FA7205210120FDF72BFA31E0D34800883C
:1054F00040F6B83188422BDAD148B0F90400D149DE
:1055000009680844CF490860CC480088401CCB4952
:105510000880642205210120FDF712FAC74800889F
:1055200040F6B831884213D1C64800684FF47A710A
:1055300090FBF1F000B2C44908804FF4C8725021CA
:105540000020FDF7FDF90020C0490860BD49086052
:10555000FFF719FF002070BDBD48008800F40070FF
:10556000C0B10220FCF7D1F94042BA4908600320DB
:10557000FCF7CBF94042B84908600420FCF7C5F9B4
:105580004042B64908600520FCF7BFF94042B449E3
:10559000086013E00220FCF7B8F9AE490860032068
:1055A000FCF7B3F9AC4908600420FCF7AEF9AB494D
:1055B00008600520FCF7A9F9A9490860A948006816
:1055C000A44909680844A7490860A7480068A24997
:1055D00009680844A4490860A44800689F4909680C
:1055E0000844A2490860A24800689D490968084427
:1055F0009F4908606420FBF745FBFBF734FF054635
:1056000007F070FB04469B480168204607F0CAF982
:10561000984908604FF07E519748006807F0C2F93A
:10562000954904460860954907F0ECFA0ED1934974
:105630009048006807F024FA044607F017FB9049E9
:10564000086000208B4908608B4908607648007824
:10565000012801D1FFF7A6F97D48007800F0070086
:1056600002287DDA8748007838BB6F48007818B97F
:1056700084480078FEF7F9FE8348016875480068A1
:10568000FEF741FC81490860814801687248006862
:10569000FEF771FB7F4908607F4801686F4800682A
:1056A000FEF7D4FA7D4908607D4801686C480068BF
:1056B000FEF737FA7B4908609AE05B48007850B9FA
:1056C0007948007818B9FCF769FE784908706D4888
:1056D0000078FEF7CAFE6C48016862480068FEF771
:1056E00085FE6A4908606A4801685F480068FEF7FD
:1056F0003EFE68490860684801685C480068FEF73B
:10570000F7FD664908606648016859480068FEF779
:1057100069FD6449086046480078022802D0FEF717
:10572000C1FC06E062480368026801680068FEF791
:105730007FFC56480068414246480068FEF7E3FB9C
:10574000801052490860534800684142424800684E
:10575000FEF711FB80104F4908605048006800E0D8
:1057600012E041423D480068FEF770FA80104B4954
:1057700008604C480068414239480068FEF7D1F99A
:1057800080104849086033E03F48006807F0AAFAF3
:105790000546484907F006FB044607F067FA3B490F
:1057A00008603B48006807F09DFA0546414907F04C
:1057B000F9FA044607F05AFA364908603648006894
:1057C00007F090FA05463B4907F0ECFA044607F06B
:1057D0004DFA324908603248006807F083FA0546FE
:1057E000344907F0DFFA044607F040FA2D49086013
:1057F00023480068FEF763F980B92F48007868B93C
:1058000041F6F420FEF722F926480368234802688F
:10581000204801681D480068FEF730F800209AE62D
:1058200002010020700000206F000020C000002056
:10583000440200204E020020050100202601002025
:10584000040200201C01002024010020100100207F
:10585000BE000020080000200C00002010000020E6
:1058600014000020180000201C0000202000002050
:10587000240000200C010020080100200000C84284
:10588000600000206E00002050000020400000203A
:105890005400002044000020580000204800002050
:1058A0005C0000204C00002083000020020000204B
:1058B000B400002000008A422801002038B50446C8
:1058C000FB4890F82400C0B114B10220009001E020
:1058D00000200090F64A1268D17BF54A5268107891
:1058E0006B460122FCF716FA10B14FF0FF3038BDBD
:1058F0009DF80010EE48417423E0ED48807A10B91D
:105900004FF0FF30F3E724B1E948407C08B10020B4
:10591000EDE714B10120009001E000200090E44A7E
:105920001268D17BE24A526810786B460122FCF77C
:10593000F1F910B14FF0FF30D9E79DF80010DC48C5
:1059400041740020D3E738B5002419E0D848006836
:10595000C07AA04204D0D6480068407DA04200D161
:105960000CE0D349496808786B4601222146FCF7D0
:1059700033FA10B14FF0FF3038BD00BF601CC4B225
:10598000CB4840680079A042E0DC0020F4E770B525
:1059900004460D46C6480068C07AA04204D0C448F8
:1059A0000068407DA04202D14FF0FF3070BDC0487A
:1059B00040680079A04202DC4FF0FF30F6E7BC49B6
:1059C000496808782B4601222146FCF705FAEDE7E5
:1059D00038B50446B64890F82300A04201D1002013
:1059E00038BD14B13020009001E000200090B04894
:1059F000807C20B19DF8000040F002000090AC488F
:105A000090F8220020B19DF8000040F08000009046
:105A1000A74A1268117DA64A526810786B46012287
:105A2000FCF778F910B14FF0FF30D9E7A04880F8C3
:105A300023400020D4E738B5044604F0700010B1CC
:105A40000120009005E014B10020009001E040200A
:105A50000090974A1268917C954A526810786B467C
:105A60000122FCF757F920B1002191488172481EAC
:105A700038BD9DF8000020F040018D4801730020E2
:105A8000009004F0400020B99DF8000040F00400B0
:105A9000009004F0200020B99DF8000040F00200C2
:105AA000009004F0100020B99DF8000040F00100C3
:105AB000009004F0080020B99DF8000040F0380084
:105AC00000907B4A1268D17C794A526810786B4604
:105AD0000122FCF71FF920B1002175488172481E90
