:020000040800F2
:10000000B80E00204D0100088D2B0008311D00089E
:10001000852900088D0E0008313D00080000000011
:100020000000000000000000000000001D38000873
:100030007512000800000000C1330008093A0008EA
:1000400067010008670100086701000867010008F0
:1000500067010008670100086701000867010008E0
:10006000670100081913000867010008670100080C
:1000700067010008670100086701000867010008C0
:100080006701000867010008670100080000000020
:1000900000000000000000000000000051130008F4
:1000A0006701000867010008670100086701000890
:1000B000BD3A000867010008CD3A00086701000852
:1000C0006701000867010008670100086701000870
:1000D00067010008670100087D3B0008453C0008F7
:1000E000791200086701000867010008670100082D
:1000F0006701000867010008000000000000000020
:10010000000000000000000067010008670100080F
:10011000670100086701000867010008670100081F
:10012000670100086701000867010008670100080F
:1001300067010008DFF810D000F00EFD004800470E
:1001400019600008AFF30080B80E00200648804711
:1001500006480047FEE7FEE7FEE7FEE7FEE7FEE7AC
:10016000FEE7FEE7FEE7FEE7193A00083501000862
:100170002DE9F0410024061B254671F1000605DA41
:1001800001240027D0EB070067EB0101161E73F175
:10019000000605DA0027D2EB0702012567EB03030F
:1001A00000F00CFB86460E4617469C46AC4204D037
:1001B0000025D0EB050E65EB010624B10020D2EB43
:1001C000000760EB030C704631463A466346BDE8D3
:1001D000F08140EA01039B0703D009E008C9121F20
:1001E00008C0042AFAD203E011F8013B00F8013BF1
:1001F000521EF9D27047D2B201E000F8012B491E1D
:10020000FBD270470022F6E710B513460A460446B3
:100210001946FFF7F0FF204610BD30B50446002018
:10022000034600E05B1C934203D2E05CCD5C401BC4
:10023000F8D030BDF0B480EA0102D40F4200B2EB36
:10024000410F02D20246084611464A0042D0C30D71
:10025000DDB2C1F3C752AD1A202D35DAC1F3160154
:1002600041F4000204B15242C5F1200602FA06F13F
:100270002A411044B3EBD05F23D0C4B1012DA0EBD1
:10028000C35009DCF0BC4FF0004202EAC352DBB2BB
:1002900000F5000000F0FDBA400000F1807000EBB6
:1002A000C350A0F1807040EAD170490009E04908CC
:1002B00041EAC071A0EBC35000F50000400800EB1C
:1002C000C350F0BC00F0DCBA6142012202EB4101F4
:1002D000001BF6E7F0BC704781F00041AAE780F010
:1002E0000040A7E780EA010210B502F00043400099
:1002F00022D04A001FD0010E01EB1261C0F356005C
:10030000C2F3560240F4000042F40002A0FB0220B7
:1003100000047F39140400D0401C50EA124001D47C
:100320004000491EC2B20C0604EBD010401C40082D
:10033000802A02D003E0002010BD20F00100002937
:1003400000DA0020184310BD30B480EA010202F048
:10035000004530F0004221F0004013D090B1C30DB1
:10036000D40DC2F31601C0F31600E41A41F40001E3
:1003700040F400027D34914201D3641C00E0490046
:10038000002C02DA30BC002070474FF4000000233C
:10039000914201D3891A034340084FEA4101F7D142
:1003A00051B1914202D14FF0004105E002D24FF02D
:1003B000010101E06FF0010103EBC450284430BC9F
:1003C00000F05EBA420005D0C0F3C75252429142DB
:1003D00001DC0020704700EBC15070472DE9FE4F53
:1003E000804681EA0300C00F0C46009021F00041D6
:1003F00023F00045B8EB0200A94105D24046214652
:1004000090461C460B46024623F00040104347D05E
:10041000270DC7F30A00C3F30A510290401A019056
:1004200040286BDAC3F3130040F4801B0098924617
:1004300020B10023D2EB030A63EB0B0B0198594662
:10044000C0F14002504600F0EAF906460D4650461B
:100450005946019A00F002FA10EB080061410024AD
:1004600087EA115284EAE7731A4340D0009A62B3D4
:10047000019A012A4FEA075215DC001B61EB0201C9
:100480004FF0004202EA0752CDE90042001C41F55C
:10049000801132462B4600F039FA03B0BDE8F08FE8
:1004A00040462146F9E7001B61EB0201001C41F5C3
:1004B000801300185B412018A2F5001747EB0301D9
:1004C00040EAD570B6196D4111E06D084FEA360665
:1004D00045EAC0754FEA0752001B61EB0201001CA0
:1004E00041F5801149084FEA300000195141324668
:1004F0002B4603B0BDE8F04F00F0F9B90098012297
:1005000040000023D0EB020263EBE0730098214629
:100510004FEAE074B8EB000061EB0401E9E783F017
:1005200000435BE781F0004158E72DE9FE4F81EA87
:10053000030404F0004421F0004100944FF0000B4C
:1005400023F0004350EA01045ED052EA03045BD07A
:10055000C3F30A54C1F30A552C44A4F2F3340194B2
:10056000A0FB0254C1F3130141F48011C3F3130340
:1005700043F4801301FB024400FB034E840A970AF4
:1005800044EA815447EA8357A4FB076802958D0A21
:1005900005FB07854FEA932C04FB0C542705029DAD
:1005A0004FEA065847EA1637B5EB08056EEB070C1D
:1005B000870E920E47EA811742EA8312A7FB0201D7
:1005C000B6EB0B0164EB00042B0D43EA0C335E1811
:1005D00044EB1C50DA465146E7FB0201C5F3130415
:1005E0004FEA0B3343EA14534FEA0432019C43EAC7
:1005F0000603A4F10C040294009CCDE900B400F0C1
:1006000085F903B0BDE8F08F00200146F9E770B529
:1006100021F0004303430CD0C1F30A550024D5EB6D
:10062000040564EB0403D617AD1AB34102DB0020C6
:10063000014670BD201841EB025170BDC10F80EA28
:10064000E0700844CA079623002100F022B99623DF
:100650000022114600F01DB90EB540F2334102915F
:100660000021CDE900110A460B4600F04FF903B016
:1006700000BD00F0004220F00040C10DC0F31600A4
:1006800040F400007F2901DA00207047962903DC3E
:10069000C1F19601C84001E096398840002AF4D0A3
:1006A0004042704720F00040C10DC0F3160040F4F6
:1006B00000007F2901DA00207047962903DCC1F190
:1006C0009601C840704796398840704770B5C1F3AD
:1006D0000A5201F000450024C1F3130140F2FF3338
:1006E00041F480119A4201DA002070BD40F2334398
:1006F0009A42A2F2334203DC524200F09FF800E03B
:1007000090402C43F1D0404270BD00F0004230F0E8
:1007100000400AD0C10D01F56071C0F3160042EA35
:100720000151C2084007114370470020014670473D
:1007300001F0004330B421F0004150EA010206D03C
:100740000A0DA2F56072C1F31301002A02DC30BC6D
:1007500000207047440F44EAC104C100E01830BCD7
:1007600000EBC25000F08CB8002801DBC0F1004063
:10077000002901DBC1F1004181427047002801DB03
:10078000C0F10040002901DBC1F1004188427047FF
:1007900030B50B46014600202022012409E021FA51
:1007A00002F59D4205D303FA02F5491B04FA02F54E
:1007B0002844151EA2F10102F1DC30BD2DE9F05FE5
:1007C0000546002092469B468846064681464024C0
:1007D0001BE0284641464746224600F02FF8534684
:1007E0005A46C01A914110D311461846224600F0CD
:1007F00016F82D1A67EB01084F462246012000210A
:1008000000F00DF817EB00094E41201EA4F1010481
:10081000DFDC484631462A464346BDE8F09F202AA1
:1008200004DB203A00FA02F1002070479140C2F147
:10083000200320FA03F3194390407047202A04DB79
:10084000203A21FA02F00021704721FA02F3D04049
:10085000C2F120029140084319467047202A06DB66
:10086000CB17203A41FA02F043EAE07306E041FA7E
:1008700002F3D040C2F1200291400843194670476C
:100880000029A8BF7047401C490008BF20F00100A4
:10089000704710B4B0FA80FC00FA0CF050EA010482
:1008A00004BF10BC704749B1CCF1200421FA04F414
:1008B00011FA0CF118BF012121430843A3EB0C01ED
:1008C000CB1D4FEA00614FEA102042BF002010BC50
:1008D000704700EBC35010440029A4BF10BC704700
:1008E000401C490008BF20F0010010BC704710B543
:1008F000141E73F1000408DA401C41F10001921843
:100900005B411A4301D120F0010010BD2DE9F04DEB
:1009100092469B4611B1B1FA81F202E0B0FA80F240
:1009200020329046FFF77BFF04460F4640EA0A005C
:1009300041EA0B0153465A46084313D0114653EA85
:10094000010019D0C8F140025046FFF777FF054675
:100950000E46504659464246FFF761FF084305D010
:10096000012004E020463946BDE8F08D0020054313
:1009700046EAE0762C4337430A986305E40AA0EB85
:1009800008000022FD0A44EA47540A3002D500203C
:100990000146E9E7010510196941DDE9084500193B
:1009A0006941BDE8F04DA2E72DE9F04D81EA03046D
:1009B00004F0004B21F0004514464FF0000A23F0EC
:1009C000004150EA050220D054EA01021DD0C5F3CF
:1009D0000A570246C5F31303C1F31300C1F30A56C5
:1009E00040F4801543F48013A7EB0608101BD6468D
:1009F00008F2FD3873EB050002D308F1010801E0AD
:100A000092185B41B8F1000F03DA00200146BDE8FF
:100A1000F08D00204FF48011064684460EE0171B2F
:100A200073EB050705D3121B63EB050306434CEA82
:100A3000010C49084FEA300092185B4150EA010767
:100A4000EDD152EA030012D082EA040083EA0501E4
:100A5000084305D0101BAB4106D20122002306E05B
:100A600000224FF0004302E06FF0010253101AEB36
:100A700006004CEB085110EB0A0041EB0B01BDE8FE
:100A8000F04DFFF734BF2DE9F04D00231A461B1A35
:100A90008A4103DB00200146BDE8F08DC1F30A5214
:100AA000C1F3130141F480154FF0000BD10702D1BF
:100AB00000186D41521E0027044640F2FF113846CF
:100AC00001EB620A3E468046024600204FF4801148
:100AD000FFF7B4FEC2197141BB1846EB0100B4EB3D
:100AE000030C75EB000C04D3E41A65EB0005174604
:100AF0000E46241908F101006D4180463428E3DDDB
:100B0000F91946EB0600091BA84103D24FF0FF324A
:100B1000134601E0002213461BEB070046EB0A5187
:100B2000BDE8F04DFFF7E3BE30B5041E71F10004DF
:100B300004DB4FF00044404264EB0101141E73F1EA
:100B4000000405DB1C464FF00043524263EB0403F4
:100B50008B4208BF824230BD064C074D06E0E0687C
:100B600040F0010394E8070098471034AC42F6D3F4
:100B7000FFF7E4FA289200084892000830B58C1874
:100B800010F8012B12F00F0301D110F8013B1209EC
:100B900006D110F8012B03E010F8015B01F8015BAE
:100BA0005B1EF9D101E001F8013B521EFBD1A142CD
:100BB000E6D3002030BD00003148816941F00401D6
:100BC000816130490A6822F470020A60816941F447
:100BD00000718161C16841F40071C160C16821F494
:100BE0000071C160416821F440414160416841F4B5
:100BF0000041416024480168244A114001600168B5
:100C00000160016821F480710160001D016821F01C
:100C100002010160016821F460210160016841F472
:100C200060210160016841F480110160016821F4D4
:100C300000610160144928310A6822F470020A60D8
:100C40000A6800220A6010490C310A6822F4700216
:100C50000A600A6842F460320A60016841F00101EA
:100C60000160016841F00801016001680907FCD4D6
:100C7000016841F00401016001684907FCD4704734
:100C8000001002400008014004240140FFFFF00072
:100C90000021A0F63502772A01D2062118E0A0F241
:100CA00001524FF4C7739A4201D8042110E0A0F218
:100CB0003532B2F5E57F01D8032109E0A0F2A51293
:100CC0009A4201D8022103E0B0F5B97F00DD01218D
:100CD0000846704730B587B00C46054618222D49A6
:100CE00001A8FFF776FA2C4847F6FF72B0F900002A
:100CF000904206D02949B1F90010914201D08842B2
:100D000041D1072D2CD2DFE805F02B040A10161C68
:100D100022006420A4F5B974444301981CE06420C7
:100D2000A4F539744443029816E06420A4F24C44BC
:100D30004443039810E06420A4F5B9644443049844
:100D40000AE06420A4F23A744443059804E0642065
:100D5000A4F6AC044443069894FBF0F0ADF8000010
:100D6000BDF90000642802DD6420ADF80000BDF983
:100D70000000002802DA0020ADF80000BDF80000F5
:100D800007B0C0B230BD621A64235A43401A92FBC6
:100D9000F0F0E3E7D0900008100000200E000020E3
:100DA0002DE9F05F9646374D354A14352E1D92F8E1
:100DB0000380371DDFF8D0A00423DFF8C8C000246B
:100DC00007F104090AF1040BB8F1010F20D0B8F1C2
:100DD000000F2FD0B8F1010F18D1002816D1D47010
:100DE0001482ACF80040002141F61F4001F00CFED7
:100DF0002C8034803C80A9F80040AAF80040ABF871
:100E00000040214808300480001D0480BDE8F09FA8
:100E10000128E2D1108A40B1884201D1ACF80040EB
:100E2000704505D2401C1082F0E7ACF80030F7E7BF
:100E30001482EBE70128E9D11248083003801149F8
:100E400041F270700C3108800F490C390B80091D7C
:100E50000880ACF800300C481438048064202880E6
:100E600030803880A9F80000AAF80000ABF8000034
:100E7000054908310880091D08800120D070C5E7A8
:100E8000E0000020202C014034040040FEE700294F
:100E9000016802D041F0010102E04FF6FE721140FC
:100EA0000160704770B50F4E05468CB00C46304659
:100EB00000F01CF80C48CDE900051020CDE9020433
:100EC00000208021CDE904014FF44051CDE9080113
:100ED000069007900A906946304600F089F80CB0F9
:100EE00070BD0000800002400444004001684FF6DD
:100EF000FE72114001600021016041608160C160AB
:100F00003149314A0839904203D1486840F00F0016
:100F100006E02D4A1432904204D1486840F0F000B7
:100F200048607047284A2832904203D1486840F40C
:100F30007060F5E7244A3C32904203D1486840F49F
:100F40007040EDE7204A5032904203D1486840F4A7
:100F50007020E5E71C4A6432904203D1486840F4AF
:100F60007000DDE7184A7832904203D1486840F0BB
:100F70007060D5E7154A111F904203D1086840F010
:100F80000F0006E0114A1432904204D1086840F084
:100F9000F000086070470D4A2832904203D108687B
:100FA00040F47060F5E7094A3C32904203D108688A
:100FB00040F47040EDE7054A50329042EAD10868AB
:100FC00040F47020E5E700000800024008040240F9
:100FD00001460020CA0001D5034A00E0034A126816
:100FE0000A4200D001207047000402400000024085
:100FF00030B5036847F6F07293430C6A8A6822435F
:10100000D1E904452C4322438C692243CC69224315
:101010004C6A22438C6A22431A430260CA684260C7
:101020000A6882604968C16030BD000038B50020A0
:1010300000906B4601227521682004F067FF30A004
:1010400003F0D2FA9DF80000682809D035480168FD
:10105000354A01F4E06111430160BFF34F8FFEE7B1
:1010600005F092F9002849D1782005F04BFE10B91F
:1010700023A003F0B9FA782005F0B8F810B92BA036
:1010800003F0B2FAC82005F0FDFD10B931A003F05D
:10109000ABFA04F06DF910B938A003F0A5FA444892
:1010A000044604F095FF0546E01C04F091FF45EA74
:1010B000C005A01D04F08CFF45EA801080B204F04A
:1010C00017FB10B93BA003F08FFA40F2731004F045
:1010D00027F810B941A003F087FAC82004F070FA8D
:1010E00010B948A003F080FA06F018FB012005F0C3
:1010F000EFFC002802D14CA003F076FA38BD0000C6
:101100006D70755F7365745F73656E736F72206366
:101110006F6D706C657465202E2E2E2E2E2E0D0A8E
:10112000000000000CED00E00400FA056D70755F32
:10113000636F6E6669677572655F6669666F206367
:101140006F6D706C657465202E2E2E2E2E2E0D0A5E
:10115000000000006D70755F7365745F73616D7082
:101160006C655F7261746520636F6D706C6574652A
:10117000202E2E2E2E2E2E0D0A000000646D705F84
:101180006C6F61645F6D6F74696F6E5F64726976B6
:1011900065725F6669726D7761726520636F6D70ED
:1011A0006C657465202E2E2E2E2E2E0D0A0000004A
:1011B000F4010020646D705F7365745F6F72696520
:1011C0006E746174696F6E20636F6D706C657465A9
:1011D000202E2E2E2E2E2E0D0A000000646D705F24
:1011E000656E61626C655F666561747572652063CA
:1011F0006F6D706C657465202E2E2E2E2E2E0D0AAE
:1012000000000000646D705F7365745F6669666FEF
:101210005F7261746520636F6D706C657465202EFC
:101220002E2E2E2E2E0D0A006D70755F7365745F65
:10123000646D705F737461746520636F6D706C654D
:101240007465202E2E2E2E2E2E0D0A000178427847
:1012500002EB01218278C07802EB012100EB012032
:1012600070470000024A50701170108870470000EB
:10127000F80000207047000030B5224A10680004D2
:1012800013D54FF4004010601F4CD4F83C511F4957
:10129000D4F80C410868431C401E012D01D00CB14C
:1012A00002E00CB1086000E00B601068194983048B
:1012B000174812D54FF400531360D1F83451034648
:1012C0001C68631C641E012DD1F8385101D00DB18A
:1012D00002E00DB1046000E0036013685B040DD50B
:1012E0004FF480431360D1F83821D1F834110AB19A
:1012F00009B104E019B10168491E016030BD0168FF
:10130000491CFAE7140401400080214274000020C7
:1013100078000020000021420A4910B5082008602A
:10132000094BD3F80C410948D3F83C3101680A460F
:10133000491C521E0CB10BB102E00BB1026010BD92
:10134000016010BD1404014000802142740000209F
:101350002DE9F05F9F48D0F8140100287DD19E4907
:10136000202008609D4CA07A40B30020A07202F0BB
:101370005BF8A07A4FF0000B012821D09848994DD6
:10138000994E0088994F8005DFF864824FF0020083
:1013900064D502F02BF940422860032002F026F9C0
:1013A00040423060042002F021F9404238600520BC
:1013B00002F01CF94142C8F800105FE00120D5E7B7
:1013C0008C480078B0B98C480078012812D18B483D
:1013D0000178CA070ED08B4B894A21F001011D68A4
:1013E00015605D6855601B8913810170607840F05D
:1013F00001006070E089B0F5FA6F08D2401CE0810E
:101400004FF4FA7205210120FFF7CAFC23E040F6F1
:10141000B835A8421FD27C49A26A401CB1F9041019
:101420001144A162E081642205210120FFF7B8FC8C
:10143000E089A8420FD1A06A4FF47A7190FBF1F0D5
:10144000A0814FF4C87250210020FFF7A9FCC4F816
:1014500020B0C4F828B001F059F8B7E002F0C6F89F
:101460002860032002F0C2F83060042002F0BEF8C9
:101470003860052002F0BAF8C8F8000063485949FE
:10148000B24602680968B946114401606048316893
:101490000268114401605F483968026811440160C4
:1014A0005D4853490268096811440160642001F0F5
:1014B000FDF800F01BFCFFF7C1F8484D8035696C62
:1014C000FEF7B8FE064668644FF07E51286CFEF7C2
:1014D000B1FE5249286488420AD13046FEF734FFF3
:1014E000FFF7C7F84E490860C5F844B0C5F840B0EA
:1014F00041480078012801D102F01CFCA17849483C
:10150000DFF824B1494D4A4E4A4FDFF82C8179B3B8
:101510000068FFF793F8494909688946FEF7E2FE3B
:10152000FFF7A7F82860DBF80000FFF787F84946C7
:10153000FEF7D8FEFFF79DF8306041480068FFF7DE
:101540007DF84946FEF7CEFEFFF793F838603D4838
:101550000068FFF773F84946FEF7C4FEFFF789F805
:10156000C8F800002E48006802F0BAFAE0B128E09E
:10157000FFE701681B48006800F0D6FD2860DBF833
:101580000010DAF8000000F03DFE30602C480168E1
:10159000D9F8000000F0A4FE38602A480168144819
:1015A000006800F00BFFDBE7E07850B926480088C0
:1015B00002F0EAFFD8F800303A683168286802F093
:1015C00083F92078802801D201F0DEF90020BDE8FF
:1015D000F09F00000080214214040140E000002040
:1015E0004E00002054000020580000205C00002025
:1015F000600000209C0000202C00002050000020F3
:10160000140200201E020020E801002064000020D7
:10161000680000206C000020700000200000C8421C
:10162000140000208C000020900000207C0000208E
:101630008000002084000020880000201800002086
:1016400094000020980000200C000020104810B5E5
:10165000816941F0080181610E48016821F470013F
:101660000160016841F4000101600A480C30016822
:1016700041F02001016001220521104600F042F9ED
:101680000223BDE8104017221946184601F08EB813
:1016900000100240000C01401349FF20C873FB20DA
:1016A0000874124802881248028042784A7402780C
:1016B0008A74104A128802804278CA7402780A75C5
:1016C0000D4A1288028042784A7502788A750B4A60
:1016D000128802804278CA75094A00780876D07864
:1016E0004876401CD0707047780A002054000020D3
:1016F0000C020020580000205C0000206000002048
:10170000FD010020234810B5C16941F00101C1610C
:10171000816941F0040181611F48016821F0FF01E6
:101720000160016841F044010160C404A08940F0F7
:101730000100A081A08940F04000A08101231C226B
:101740000321184601F032F8002020854FF6FF7083
:10175000A085208820F440702080208820F0600040
:101760002080208B40F001002083208B40F480708B
:101770002083208C20F002002084208C20F0200088
:101780002084208940F003002081208840F001005F
:10179000208010BD0010024000080140174810B51D
:1017A000816941F0080181611548016821F47041A7
:1017B0000160016841F400410160001D016821F0F1
:1017C00070410160016841F000410160032211464F
:1017D000012000F097F803220F21012000F092F879
:1017E000002102230922084600F0E0FF02232822FC
:1017F0000021BDE81040084600F0D8BF00100240AC
:10180000000C0140294810B5C16941F00401C161D3
:10181000816941F0080181612548016821F07F411B
:101820000160016841F0884101602248018841F06F
:1018300001010180018841F04001018001231E2245
:101840000321184600F0B2FF1A4900201C3108801D
:10185000091D4FF6FF70088016480C38018821F4E6
:1018600040710180018821F06001018011490C3133
:101870000A8842F001020A800A8842F480720A80D3
:101880000C4914310A8822F002020A800A8822F0E8
:1018900020020A800749091F0A8842F003020A80D1
:1018A000018841F00101018010BD000000100240DC
:1018B000000C01400C080040104810B5816941F04F
:1018C000040181610E48016821F07F6101600168B7
:1018D00041F00861016003220D21002000F012F8A0
:1018E00003220E21002000F00DF8022328220021FF
:1018F000BDE81040084600F059BF0000001002404B
:101900000408014070B5144D8B088C07AE69240F94
:1019100046F00106AE619D00104B2B449D680F26DA
:10192000A640B5439D609D68A04005439D600C4B5B
:101930001C680120884004431C60D10704D008497A
:101940000C310B6803430B60910704D5044908313F
:101950000A6802430A6070BD0010024000000140A6
:10196000000401402DE9F05F0C224449444801F095
:1019700099FE424C4FF6FF70424A2188424B434E3B
:10198000434FDFF81081DFF81091DFF810A1DFF886
:1019900010B1444D814241D1B4F802C084453DD1DB
:1019A000B4F804C0844539D1B4F806C0844535D1B3
:1019B000B4F808C0844531D1B4F80AC084452DD1AB
:1019C000B4F80CC0844529D1B4F80EC0844525D1A3
:1019D000B4F810C0844521D1B4F812C084451DD19B
:1019E000B4F814C0844519D16420106040F6B830B2
:1019F00018602D483060002038602C49C8F800106D
:101A00002B48C9F80000CAF800003220288040F6B0
:101A10001231ABF800104FF4FA7122E011606088C7
:101A20001860A088FEF713FE3060E088FEF70FFE16
:101A300038602089FEF70BFEC8F800006089FEF7C9
:101A400006FEC9F80000A089FEF701FECAF80000F2
:101A5000E0892880218AABF800101649608A088046
:101A6000A18A154801602888FEF7F1FD1349FEF7A9
:101A70006BFC13490860BDE8F09F000028020020BD
:101A800000F800084400002048000020300000203A
:101A900034000020380000203C00002040000020DE
:101AA0004E0000204C0000200000A04100004843F0
:101AB00000004041EC000020FC0000200050C34723
:101AC0000401002010B51C481C4C008820801C48D4
:101AD000008860801B480068FEF7E4FDA0801A487B
:101AE0000068FEF7DFFDE08018480068FEF7DAFDC9
:101AF000208117480068FEF7D5FD60811548006811
:101B0000FEF7D0FDA081144821460C220088E08118
:101B10001248008820F0C8002082114800886082A6
:101B200010480088A0824FF6FF70E082BDE81040A8
:101B30000D4801F0E3BD00004400002040020020F9
:101B40004800002030000020340000203800002031
:101B50003C000020400000204C0000204E000020EF
:101B6000EC000020FC00002000F8000870B51446CE
:101B70000D460068FEF77DFD054B1860D8782855A6
:101B8000281999784170597881701978C17070BDA1
:101B9000080200202DE9F84F81F000441046194654
:101BA0000A9EFEF747FB02460020214684F00045CE
:101BB000074682F00044FEF73DFB2146FEF73AFB64
:101BC000804629463846FEF735FB2146FEF732FBB4
:101BD00004463748374FC2460078A146002854D102
:101BE0005046FEF746FD009005F012F9FEF72FFD76
:101BF00005462046FEF73DFD834605F009F9FEF750
:101C000026FD2946FEF7BAFD05D2584605F000F933
:101C1000FEF71DFD0546009805F0FAF8FEF717FDE2
:101C20002946FEF7ABFD05D2009805F0F1F8FEF766
:101C30000EFD0546584605F0EBF8FEF708FD29466F
:101C4000FEF79CFD05D2584605F0E2F8FEF7FFFCD2
:101C500005463868FEF7F2FC2946FEF785FD14D8E4
:101C60003868FEF7EBFC2946FEF76EFB0546014699
:101C70004046FEF737FB0746B84629462046FEF7A2
:101C800031FB01460C46BA4681462046FEF7F1FC80
:101C900030604046FEF7EDFC70604846FEF7E9FC18
:101CA000B0605046FEF7E5FCF060BDE8F88F00003C
:101CB0002B000020440000200B490A6822F01F027C
:101CC0000A600A6802430A6007482C38016841F438
:101CD000800101600448343801688907FCD5024856
:101CE0001830006880B270473424014010B50520D8
:101CF000FFF7E2FFFEF7B0FC4FF06632094BFEF74C
:101D000014FC0022084BFEF710FC0022074BFEF7E4
:101D10000CFC6FF00B02FEF77AFCBDE81040FEF7FA
:101D2000D5BC000066660A4000002640000059400D
:101D3000FEE770B50D46044600F0D4F8204600F0EA
:101D4000A1F800F017F9284600F09CF800F012F90D
:101D500000F0C8F8641CE0B200F094F800F00AF952
:101D6000002000F059F8044600F0E4F8204670BD69
:101D700070B50D4C0025C4F8A0510C48016821F045
:101D8000F0010160016841F030010160C4F8A45124
:101D9000012004F5D07403F02FF90120206003F036
:101DA0002BF9256070BD000000802142040C014029
:101DB0000748816941F0080181610648016821F006
:101DC000FF010160016841F03301016070470000CC
:101DD00000100240040C014070B50D4C0025C4F801
:101DE000A0510C48016821F0F0010160016841F048
:101DF000300101600126C4F8A461304604F5D074B6
:101E000003F0FAF82660012003F0F6F8256070BDB3
:101E100000802142040C01402DE9F047814617481B
:101E20000024016821F0F0010160016841F08001A7
:101E30000160134E254627464FF00108C6F8A071F1
:101E4000022003F0D9F8C6F8A0816006040ED6F887
:101E5000240108B1641CE4B2022003F0CDF86D1C2B
:101E6000EDB2082DEAD3B9F1000F02D0FFF780FFE1
:101E700001E0FFF7B1FF2046BDE8F087040C014008
:101E8000008021422DE9F04106461448016821F006
:101E9000F0010160016841F030010160104C002741
:101EA000C4F8A0713D464FF00108F009C4F8A40140
:101EB0007006060E012003F09FF8C4F8A0810120EF
:101EC00003F09AF8C4F8A071012003F095F86D1C96
:101ED000EDB2082DE9D3BDE8F0810000040C01400B
:101EE0000080214270B51148016821F0F0010160C5
:101EF000016841F0300101600D4C0120C4F8A401DB
:101F0000D4F8241149B1C4F8A00103F075F80025F4
:101F1000C4F8A451D4F8240108B1002070BD0120F8
:101F200003F06AF8C4F8A051012070BD040C014010
:101F3000008021420D4810B5016821F0F0010160D8
:101F4000016841F030010160094C0020C4F8A00193
:101F5000C4F8A401012004F5D07403F04DF8012069
:101F600020606060BDE8104003F046B8040C0140FA
:101F70000080214270B513480024016821F0F0016F
:101F80000160016841F0800101600F4D0126C5F834
:101F9000A461304603F030F8C5F8A06107E0641C86
:101FA000E4B2322C03D9FFF7C5FF002070BD012039
:101FB00003F022F8D5F824010028F0D1C5F8A001DB
:101FC000012070BD040C01400080214210B5144670
:101FD000FFF7AFFE2070012010BDF8B515461C4676
:101FE0000E4607466A46FFF7F1FF01209DF80010F4
:101FF000A8400CB1084301E021EA0000C2B28DF80C
:1020000000203146384600F02BF8F8BD2DE9F843A2
:1020100014461D460F4680466A46089EFFF7D6FFC7
:1020200000281BD0611CFF20C4F1080200FA01F156
:102030002A44521ED0400143C5F108008640F2B246
:10204000C4F10700C2409DF80000084010438DF81D
:102050000000C2B23946404600F002F8BDE8F883FD
:1020600007B502AB012200F001F80EBD2DE9F041E9
:102070001E461546884607460024FFF733FF3846BC
:10208000FFF700FFFFF776FF4046FFF7FBFEFFF785
:1020900071FF06E0305DFFF7F5FEFFF76BFF641C94
:1020A000E4B2AC42F6D3FFF745FF0120BDE8F08172
:1020B0001849FF20184A0870FA20487017481388FA
:1020C000038043788B700378CB7053880380437808
:1020D0000B7103784B719288028042788A71027882
:1020E000CA710F4A1388038043780B7203784B72CE
:1020F0005388038043788B720378CB729288028076
:1021000042780A73074A0078487390788873401CB5
:1021100090707047780A0020EE0100200C02002029
:10212000E8010020FD0100202DE9F041314C0D00B7
:10213000074612D0607941070FD5214610F00302FF
:10214000C96B05D0012A04D0022A02D0032A01D18A
:102150004942616320F0040060717E1B30462663B3
:10216000FEF76CFA24490968FEF7BCF88046A06BBC
:10217000301AFEF763FA21490968FEF7B3F84146C1
:10218000FEF758F88046606BFEF758FA4146FEF7B6
:1021900051F8FEF76EFA01466063194800888842DC
:1021A00000DA6063616B4042814200DA6063A663DB
:1021B000002D03DA607940F0010003E003DD60796F
:1021C00020F0010060712F4311D1607941070ED4D6
:1021D000616BE163002140F0040061636071C1073D
:1021E00002D040F0020001E020F002006071606B5C
:1021F000BDE8F081E0000020400000203C0000200D
:102200000C0000202DE9F041314C0D00074612D0A2
:10221000A07941070FD5214610F00302C96C05D003
:10222000012A04D0022A02D0032A01D14942616462
:1022300020F00400A0717E1B30462664FEF7FEF9F4
:1022400024490968FEF74EF88046A06C301AFEF764
:10225000F5F921490968FEF745F84146FDF7EAFF1F
:102260008046606CFEF7EAF94146FDF7E3FFFEF7B2
:1022700000FA0146606419480088884200DA606408
:10228000616C4042814200DA6064A664002D03DA8A
:10229000A07940F0010003E003DDA07920F0010007
:1022A000A0712F4311D1A07941070ED4616CE16474
:1022B000002140F004006164A071C10702D040F029
:1022C000020001E020F00200A071606CBDE8F08126
:1022D000E0000020400000203C0000200C00002016
:1022E0002DE9F041314C0D00074612D0E07941074D
:1022F0000FD5214610F00302C96D05D0012A04D084
:10230000022A02D0032A01D14942616520F004006B
:10231000E0717E1B30462665FEF790F92449096876
:10232000FDF7E0FF8046A06D301AFEF787F92149DE
:102330000968FDF7D7FF4146FDF77CFF8046606DD9
:10234000FEF77CF94146FDF775FFFEF792F901466D
:10235000606519480088884200DA6065616D404216
:10236000814200DA6065A665002D03DAE07940F06D
:10237000010003E003DDE07920F00100E0712F436C
:1023800011D1E07941070ED4616DE165002140F083
:1023900004006165E071C10702D040F0020001E075
:1023A00020F00200E071606DBDE8F081E0000020E7
:1023B000400000203C0000200C0000202DE9F041EE
:1023C000314C0D00074612D0207A41070FD5214627
:1023D00010F00302C96E05D0012A04D0022A02D0EF
:1023E000032A01D14942616620F0040020727E1B5D
:1023F00030462666FEF722F924490968FDF772FF88
:102400008046A06E301AFEF719F921490968FDF7D8
:1024100069FF4146FDF70EFF8046606EFEF70EF93C
:102420004146FDF707FFFEF724F9014660661948AB
:102430000088884200DA6066616E4042814200DABC
:102440006066A666002D03DA207A40F0010003E002
:1024500003DD207A20F0010020722F4311D1207A71
:1024600041070ED4616EE166002140F00400616610
:102470002072C10702D040F0020001E020F002000B
:102480002072606EBDE8F081E00000204000002076
:102490003C0000200C00002041060748826942F001
:1024A000010282610548426822F0E06242604268AF
:1024B0000A434260704700000010024000000140E3
:1024C0001048816941F0080181610F48016821F0DD
:1024D00070610160016841F0006101600A490831E2
:1024E0000A6842F480420A60026822F470220260A4
:1024F000026842F400220260086840F480500860DC
:102500007047000000100240040C014010B5642028
:1025100002F00CFD022804D10348017811B100211A
:10252000017010BD0121FBE7000000202DE9F843F8
:1025300081464048404B1746884682F00045018856
:102540009A6A3E4C1E6A11F0070CC2F1000008D0D6
:10255000BCF1010F2DD0BCF1020F49D0BCF1030F2B
:1025600046D0CB0562D44805104608D5FEF766F87C
:102570003146FDF7B7FE03462A46009407E0FEF712
:102580005DF83146FDF7AEFE03463A4600944146FB
:10259000484600F0D9FC2A4920680860294960684B
:1025A00008602949A06808602849E0680860BDE81B
:1025B000F883CB0518D5490509D500BFFEF73EF8CD
:1025C0003146FDF78FFE03462A46009407E0FEF7EA
:1025D00035F83146FDF786FE03463A4600944146FB
:1025E000484600F025F9D6E748051046EFD5E5E75F
:1025F000CB0517D5490508D5FEF720F83146FDF77C
:1026000071FE03462A46009407E0FEF717F83146AC
:10261000FDF768FE03463A46009441464846FFF7F8
:10262000B9FAB8E748051046EFD5E5E74905A6D55C
:102630009CE700004E000020E0000020580A002027
:102640008C000020900000209400002098000020C2
:102650001248816941F00401816111490A6822F040
:1026600070420A600A6842F040520A600C49083120
:102670000A6842F400420A60816941F00801816100
:102680000848016821F47F010160016841F43301C9
:10269000016005490020C1F8B401704700100240F4
:1026A00004080140040C01400080214210B5094A91
:1026B000002360B108490C68641C0C60844205D199
:1026C000D2F8BC01C043C2F8BC010B6010BDC2F817
:1026D000BC3110BD00002142D400002010B5022002
:1026E00000F011F8032000F020F8002000F014F8AA
:1026F000002000F02FF8002000F026F8BDE8104080
:10270000002000F01BB808B50323009002226B21C3
:10271000D020FFF77BFC08BD08B5022300900422FF
:102720001C21D020FFF772FC08BD08B502230090E1
:1027300004221B21D020FFF769FC08BD03460122BB
:102740003721D020FFF749BC034605226A21D0205B
:10275000FFF743BC034606226B21D020FFF73DBCA8
:102760000F4800210161C160142242618161C16191
:10277000026842F00102026042680A4B1A4042605D
:102780000268094B1A400260026822F4802202604B
:10279000426822F4FE0242608160C00300F03EB84D
:1027A000001002400000FFF8FFFFF6FEF0B50546FE
:1027B00014460F461E46184600F01EF8C6F10400E7
:1027C00085400F20F040384028436109890001F11D
:1027D000E021D1F8002104F01F050123AB401A438A
:1027E000C1F8002104F1E02494F8001441EA00103B
:1027F00084F80004F0BD0000072181430A02054966
:1028000008684FF6FF031840034B18431043086055
:10281000704700000CED00E00000FA05024A11408C
:10282000014302480160704780FFFF1F08ED00E090
:102830002DE9F84F80F000460D46194610460A9FD4
:10284000FDF7F8FC0446304686F00049294685F03D
:102850000048FDF7EFFC2146FDF7ECFC00904146F7
:102860003046FDF7E7FC2146FDF7E4FC83462946A8
:102870004846FDF7DFFC2146FDF7DCFC8246414679
:102880004846FDF7D7FC2146FDF7D4FC06463B48F9
:102890003B4D007800285FD10098FDF7EAFE04F078
:1028A000B7FAFDF7D4FE04465846FDF7E2FE80462F
:1028B00004F0AEFAFDF7CBFE2146FDF75FFF05D22F
:1028C000404604F0A5FAFDF7C2FE04465046FDF767
:1028D000D0FE804604F09CFAFDF7B9FE2146FDF7D4
:1028E0004DFF05D2404604F093FAFDF7B0FE0446D2
:1028F0003046FDF7BEFE804604F08AFAFDF7A7FEDB
:102900002146FDF73BFF05D2404604F081FAFDF772
:102910009EFE04462868FDF791FE2146FDF724FF40
:102920001AD82868FDF78AFE2146FDF70DFD0446FA
:1029300001460098FDF7D6FC009021465846FDF769
:10294000D1FC834621465046FDF7CCFC8246214609
:102950003046FDF7C7FC06465846FDF78AFE38604C
:102960000098FDF786FE78603046FDF782FEB8607D
:102970005046FDF77EFEF860BDE8F88F2B00002082
:1029800044000020FEE7000070B5FFF791FB194CF2
:102990000F200025E0716079042804D9FEF77CFE41
:1029A0001A20E07165716079401C6071A07964281B
:1029B00004D900F007FD2120E071A571A0790F492D
:1029C000401CA0710C4809780078084310D14FF0E2
:1029D0000070FEF7FDFA01280AD1E179002907D03D
:1029E0000748FEF75FFA01210648FEF750FAE57145
:1029F00070BD0000FD010020080000200000002044
:102A0000780A00208000024030B55B4A936943F4A5
:102A100000639361936943F004039361574B1C680F
:102A20006FF30F041C601C684BF6BB352C431C6015
:102A3000534B18801B1F1980514B103B1C8844F4CA
:102A4000C0441C801C8844F060041C801C1F258826
:102A500045F4C0452580258845F0600525801D8802
:102A600045F400651D801D8845F008051D802388FC
:102A700043F400632380238843F008032380404B02
:102A80000C3B1C8844F480541C801C8844F48074E3
:102A90001C801C8844F010041C801C8844F0010435
:102AA0001C80374B18331C8844F400441C80344B82
:102AB0004FF400442C3B1C801D8845F001051D800F
:102AC000D36943F00203D361936943F00803936130
:102AD0002A4A121F136823F07F431360136843F0E0
:102AE0003B431360274A136823F0FF031360136806
:102AF00043F0BB031360244A1080101F018022485A
:102B00001038018841F4C0410180018841F0600122
:102B10000180011F0A8842F4C0420A800A8842F0FC
:102B200060020A80028842F400620280028842F059
:102B300008020280088840F400600880088840F09D
:102B40000800088010480C38018841F48051018049
:102B5000018841F480710180018841F010010180F9
:102B6000018841F00101018007482C380480018868
:102B700041F00101018030BD001002400408014015
:102B80002C2C0140000C01402C0400407047000038
:102B900010B40021084B0A465FF0000003EBC004AC
:102BA000401CC0B262548028F8D3491CC9B208291D
:102BB000F2D310BC00F0D4B85802002010B57F2822
:102BC00016D83F2914D80723A3EBD10301F007013E
:102BD000C1F107040121A140064CDBB204EBC000A7
:102BE000002AC25CC9B201D00A4300E08A43C25441
:102BF00010BD000058020020524810B5816941F014
:102C00000801816150490A6822F470220A600A684A
:102C100042F400320A60816941F0100181618169EA
:102C200041F00101816149494A68C2F313024A60D7
:102C30004A68474B1A434A6046490A6842F4807220
:102C40000A60026A22F0010202624348028822F00E
:102C500001020280086820F4807008603F4C002068
:102C6000C4F8B401642004F5DA7402F0BBF9012061
:102C700020600021AE2000F03DF90021D52000F0B9
:102C800039F90021502000F035F90021A82000F08A
:102C900031F900213F2000F02DF90021D32000F070
:102CA00029F90021084600F025F90021402000F014
:102CB00021F900218D2000F01DF90021142000F0E1
:102CC00019F90021202000F015F90021022000F060
:102CD00011F90021A12000F00DF90021C02000F021
:102CE00009F90021DA2000F005F90021122000F096
:102CF00001F90021812000F0FDF80021EF2000F013
:102D0000F9F80021D92000F0F5F80021F12000F0B9
:102D1000F1F80021DB2000F0EDF80021302000F078
:102D2000E9F80021A42000F0E5F80021A62000F039
:102D3000E1F80021AF2000F0DDF8BDE81040FFF71A
:102D400027BF000000100240000C014000100140AD
:102D50000000202200700040306C00400000224241
:102D600070B5114E002400BF04F1B000C0B20021C4
:102D700000F0C0F80021084600F0BCF80021102047
:102D800000F0B8F85FF0000506EBC5000121005D1A
:102D900000F0B0F86D1CEDB2802DF5D3641CE4B2E8
:102DA000082CE1D370BD0000580200202DE9FF4F30
:102DB000203A1F460C46894602F0FF0A0025DDF83E
:102DC00034B032E00C2F09D01A4901EB0A104FF051
:102DD0000008465D300607D55A4609E016490AEB59
:102DE0004A0001EB8000F2E7BBF1000F12D0002295
:102DF00021460098FFF7E2FE7006641C060EE4B25E
:102E0000A4EB0900B84207D100984C46401CC0B260
:102E1000009008E00122EBE708F1010000F0FF0854
:102E2000B8F1080FD6D36D1CEDB2BD42CAD3BDE8D0
:102E3000FF8F00007C7E0008087A00082DE9FF4F14
:102E400081B00026DDF838A01D4693468146344601
:102E50004FF001084FEA5A0727E0281B401EC1B275
:102E60000A2003F0DBFFBBFBF0F00A21B0FBF1F21C
:102E700001FB120026B9691E8C4201DA48B1012615
:102E80003030C2B207FB0490C0B25346CDF8008088
:102E900006E007FB0490C0B253462022CDF8008024
:102EA0000299FFF783FF641CE4B2AC42D5D305B0AE
:102EB000BDE8F08FF8B516460D460446012714E02C
:102EC0007A2C02D900241035EDB23A2D03D9002412
:102ED0002546FFF75DFE009732780C2329462046F1
:102EE000FFF764FF0834E4B2761C30780028E7D19D
:102EF000F8BD000070B5124C0025012211B1C4F8D4
:102F0000902101E0C4F8905100BF00210D4B00BF9B
:102F1000C3F8BC5100BF060602D5C3F8B82101E0D2
:102F2000C3F8B85100BFC3F8BC214006000E00BF73
:102F3000491CC9B20829EBD3C4F8902100BF70BD69
:102F400000802142000022422DE9FF4F91B08A46C5
:102F50001D46144611461E9F1198FDF76BF9294630
:102F6000FDF768F9FDF785FB80462846FDF7CDFBA8
:102F7000064689462046FDF7C8FB04460D465046E6
:102F80000591FDF7C2FB83468A4603910020524912
:102F900004F042FC4FF0FF32FDF739FB5A4653462E
:102FA000FDF7C3FA0D9110904FF03F411198FDF7D6
:102FB00099F9FDF7AAFB019182460D9B109AFDF746
:102FC0000DFA2B462246FDF709FA4B463246FDF72D
:102FD00005FAFDF77BFB0546CDF818900896002012
:102FE0003D49DDF81490039E04F016FC4FF0FF32CB
:102FF000FDF70DFB5A463346FDF797FA02460B469E
:1030000050460199FDF78BFA22464B46FDF7E6F94B
:10301000069B089AFDF7E2F9FDF758FB06462F4894
:10302000DFF8BC90007800284ED1404603F0F0FE57
:10303000FDF70DFB0446284603F0EAFEFDF707FB0B
:103040002146FDF79BFB05D2284603F0E1FEFDF784
:10305000FEFA0446304603F0DBFEFDF7F8FA21469F
:10306000FDF78CFB05D2304603F0D2FEFDF7EFFAF8
:103070000446D9F80000FDF7E1FA2146FDF774FB9C
:1030800022D8D9F80000FDF7D9FA2146FDF75CF9FE
:1030900004464046FDF7D2FA2146FDF723F9FDF735
:1030A000E8FA80462846FDF7C9FA2146FDF71AF9E5
:1030B000FDF7DFFA05463046FDF7C0FA2146FDF779
:1030C00011F9FDF7D6FA06460020C7E90260C7E904
:1030D000008515B0BDE8F08F000008402B000020EF
:1030E000440000202DE9F047232792B006464FF018
:1030F00006094FF00C0A4FF0000808287DD007DCC5
:10310000082E7DD2DFE806F07C17293B4854616C1D
:103110000C2E76D006DC092E74D00A2E73D00B2E1E
:103120006ED1A9E00F2E04D0202E6DD02F2EF7D116
:10313000F5E0002448258DF8007001208DF801008D
:103140008E488DF802808DF803800088010A8DF882
:1031500004108DF80500012E7DD08DF80670022038
:103160008DF8070086488DF808808DF80980008862
:10317000010A8DF80A108DF80B00022E6CD08DF824
:103180000C7003208DF80D0000227E480DF10E0119
:10319000FEF7ECFC032E7CD08DF8127004208DF825
:1031A00013000022784805A9FEF7E0FC042E71D038
:1031B0008DF8187005208DF81900002273480DF164
:1031C0001A01FEF7D3FC052E65D08DF81E708DF820
:1031D0001F9000226E4808A9FEF7C8FC062E7BD07F
:1031E0008DF8247007208DF82500002269480DF124
:1031F0002601FEF7BBFC072E7FD08DF82A7004E075
:10320000B6E04FE011E022E08BE008208DF82B00C3
:1032100061488DF82C808DF82D800088010A8DF88A
:103220002E108DF82F00082E6AD08DF830700920EE
:103230008DF8310059488DF832808DF83380008840
:10324000010A8DF834108DF83500092E5BD08DF809
:1032500036700A2001E07EE040E08DF837005048EB
:103260008DF838808DF839800088010A8DF83A1081
:103270008DF83B000A2E49D08DF83C700B208DF85C
:103280003D0048488DF83E808DF83F800088010A57
:1032900002E026E028E02AE08DF840108DF8410099
:1032A0000B2E36D040488DF842708DF843A001882F
:1032B0003E480C2E018041788DF8441001788DF83D
:1032C00045103B490988018041788DF84610007807
:1032D0008DF8470020D04BE00CE00EE006240C25D2
:1032E0003BE00C24122538E01224182535E0182480
:1032F0001E2532E01E2424252FE024242A252CE03C
:103300002A24302529E03024362526E036243C25A1
:1033100023E03C24422520E0422448251DE00024EF
:1033200006258DF8007020208DF801002148A42189
:10333000202E006890FBF1F11F480160C1788DF8E4
:10334000021081788DF8031041788DF80410007810
:103350008DF805000CD1002406251848018849067F
:10336000FCD516491DF80400091D0880641CE4B250
:10337000AC42F2D312B0BDE8F08700004400002058
:1033800048000020300000203400002038000020D9
:103390003C000020400000204C0000204E00002097
:1033A000EC000020FC000020100000200C02002097
:1033B0000E00002008010020080200200044004008
:1033C000704700000D48FF218176FC21C1760C4931
:1033D0000A880C490A804A7802770A7842770A4AB2
:1033E00012780A804A788277084A0978C177117979
:1033F00080F82010491C117170470000780A0020E5
:10340000140000200C02002002000020FD0100201A
:10341000044A0029516901D0014300E08143516110
:1034200070470000001002402DE9F04F89B06A4C4F
:1034300007A8CDE9004004F11A0106AB02AA881FD3
:1034400001F0A0FF2088C0057ED50298FDF7F6F8B0
:103450006FF01D063146FCF7B5FF05466060039826
:10346000FDF7ECF83146FCF7ADFF8046A06004980C
:10347000FDF7E4F83146FCF7A5FF0746E060059844
:10348000FDF7DCF83146FCF79DFF0646206101217F
:103490002846FCF797FF3946FCF724FF05464FF016
:1034A000404739464046FCF71DFF3146FCF71AFFFE
:1034B0002946FCF7BFFEFDF728F901F021FADFF8F5
:1034C0001C914FF0663842464B46FDF72EF8FDF74B
:1034D0002FF943490860E06801210546FCF772FFB7
:1034E00082462946FCF7FEFE0546A0683946064698
:1034F000FCF7F8FE3146FCF7F5FE2946FCF7ECFE3A
:103500004FF07E51FCF796FEFDF7FFF807460D469B
:1035100001216068FCF756FF3146FCF7E3FE0646E2
:1035200050462169FCF7DEFE3146FCF783FEFDF7CD
:10353000ECF83A462B4601F02BFC42464B46FCF792
:10354000F4FFFDF7F5F800E042E026490860216944
:1035500001910846FCF7C6FEE1680746084600915F
:10356000FCF7C0FEA16806468B465846FCF7BAFE3B
:10357000616805468A465046FCF7B4FE2946FCF7CA
:1035800059FE3146FCF7A8FE3946FCF7A5FEFDF7CB
:10359000BCF804460D4650460199FCF7A3FE0646CA
:1035A00058460099FCF79EFE3146FCF743FE012188
:1035B000FCF708FFFDF7A9F822462B4601F0E8FBCF
:1035C00042464B46FCF7B1FFFDF7B2F806490860EA
:1035D00009B0BDE8F08F0000D401002066A64C4081
:1035E000A0000020A4000020A80000200021022844
:1035F00007D003280BD004280BD005280ED00020BC
:1036000070474FF08042B2F9240091847047054A18
:1036100005E0054AB2F9000011807047034A1068BE
:1036200011607047740000202408004078000020DA
:1036300070B5054645F6FF76304600F04DF8002897
:1036400012D10A4C206940F00200206165612069B6
:1036500040F040002061304600F03EF8012803D0E1
:10366000216921F00201216170BD000000200240AB
:103670000748C068C10701D001207047410701D544
:1036800002207047C00601D5032070470020704714
:10369000002002400248016941F080010161704749
:1036A0000020024010B5002306E000BF30F8024BB6
:1036B00021F813405B1C9BB29342F7D310BD00006E
:1036C000034802494160034941607047230167454F
:1036D00000200240AB89EFCD10B50446FFF7C8FFCC
:1036E000012803D0002C00D1FF2010BD012001F0E3
:1036F00083FC641E2404240CF0D1F5E72DE9F05F6F
:103700001546A0F100628A468346B2F5803F53D247
:10371000FFF7D6FFC2F34806970AC6F50074A54224
:1037200000D82C46DFF894904FF0006000EB872023
:1037300080464FF400722149FFF7B4FF00204FF696
:10374000FF7106E0331839F813208A4203D1401C78
:1037500080B2A042F6D3A04226D24046FFF768FFCF
:103760000020494607E000BF3AF810208319401CAA
:1037700021F8132080B2A042F6D3104940464FF4FE
:10378000007200BF00F036F8A54211D0281B0AEBEA
:10379000440A0BEB440B002685B24FF400747F1CE7
:1037A000A542C1D82C46BFE7224651465846E9E714
:1037B000BDE8F05FFFF76EBFBDE8F09F5806002040
:1037C00070B506460D46FF20FFF786FF00280ED194
:1037D000074C206940F0010020613580FF20FFF791
:1037E0007BFF012803D0216921F00101216170BD17
:1037F000002002402DE9F04116460F460546002400
:1038000008E000BF37F814102846FFF7D9FF641C02
:10381000A4B2AD1CB442F5D3BDE8F08170470000FE
:103820000CB50021264801910091026842F48032D3
:1038300002604FF4A063026802F400320092019A21
:10384000521C0192009A12B9019A9A42F3D102686D
:10385000920333D5012100911A490A6842F01002FF
:103860000A600A6822F003020A600A6842F0020253
:103870000A604168416041684160416841F480618B
:103880004160416821F47C114160416841F4E811D4
:103890004160016841F08071016001688901FCD5D7
:1038A000416821F003014160416841F0020141603B
:1038B0004168C1F381010229FAD10CBD00910CBD10
:1038C0000010024000200240F0B5344C314E324F1F
:1038D00025884FF4E15400284FEAC55C06DDC0F5A9
:1038E000E15080B2BCF1000F09DB05E000F5E150CA
:1038F00080B2BCF1000F02DA3C80308001E03480FD
:1039000038802448244E001D361D00294FEAC55733
:1039100005DDC1F5E15189B2002F08DB04E001F5B6
:10392000E15189B2002F02DA3480018001E0048085
:1039300031801849184808310830002A4FEAC55626
:1039400005DDC2F5E15292B2002E08DB04E002F57B
:10395000E15292B2002E02DA04800A8001E00C806B
:1039600002800C480C490C300C31002B4FEAC55535
:103970000ADDC3F5E15292B2002D02DA04800A801A
:10398000F0BD0C800280F0BD03F5E1539AB2002D2A
:10399000F7DBF3E734040040342C01404E000020F4
:1039A00010B50446FEF7DCFE1549086840F4803087
:1039B00008600868400CFCD04FF480604860A41E8A
:1039C0004A68E0B242EA80404860486840F480308B
:1039D00048600C48026842F032020260086840F019
:1039E000807008600868400EFCD0486840F0020013
:1039F00048604868C0F381000228FAD110BD000079
:103A0000001002400020024002480178491C017069
:103A100070470000090000200F4810B5016841F010
:103A20000101016041680D4A1140416001680C4A82
:103A300011400160016821F480210160416821F496
:103A4000FE0141604FF41F018160FFF7E9FE054967
:103A50004FF00060086010BD001002400000FFF849
:103A6000FFFFF6FE08ED00E01348437A002200F164
:103A70000B01D3B142720B7843F001030B70437911
:103A8000042B04D90B7843F002030B704271437985
:103A90005B1C43718379052B04D90B7843F0040335
:103AA0000B70827183795B1C83710878024B0A3337
:103AB000187008780A707047000000204FF08040AE
:103AC000018A018A21F001010182704703480188BF
:103AD000018821F0010101807047000010080040BA
:103AE00070B588B006461C221E496846FCF771FB7B
:103AF0001D48002547F6FF72B0F90010914206D02C
:103B00001A48B0F90000904201D0814204D118490E
:103B100009783DF8210000B216490978A9B9164C78
:103B20004FF4C8728642217912DA608AB0F57A7F42
:103B300004D2401C6082012902D006E001202071DD
:103B400050210120FDF72CF9012508B0284670BD51
:103B500000266682012903D150210020FDF720F9BB
:103B60002671F2E76C840008100000200E0000208F
:103B70000300002004000020E0000020F0B52948E8
:103B80000088800642D52748001D00880021C4B265
:103B90002548264A264B0578022D05D01960596024
:103BA0001981022505701170224E234801253778AE
:103BB00037B907787F1CFFB207700A2F00D935701C
:103BC000167816B1012E08D01DE08678FE2E1AD187
:103BD000C678FF2E17D11570417045785C556D1C65
:103BE000EDB245701B78022B01D0032B09D1134B8A
:103BF0001B7803F00703012B0AD0022B08D0032BFC
:103C000006D0082D06D08178C17084700020F0BDE8
:103C10000A2DF8D111700A490A7842F001020A709F
:103C2000F1E7000000440040510000209C0000200B
:103C30001E0200202C000020C00000204E000020AA
:103C400050000020F0B529480088800644D5274858
:103C5000001D0088264CC5B2264A2678264B2748E8
:103C6000002116B1042E06D033E019605960198185
:103C7000042626701170224E0124377837B9077850
:103C80007F1CFFB207700A2F00D93470167816B166
:103C9000012E08D01DE08678FE2E1AD1C678FF2EA0
:103CA00017D11470417044781D55641CE4B24470FF
:103CB0001B78022B01D0032B09D1124B1B7803F088
:103CC0000703012B09D0022B07D0032B05D0082CAA
:103CD00005D08178C1708570F0BD0A2CF9D11170C2
:103CE00009490A7842F001020A70F2E700480040F0
:103CF000510000209C0000201E020020D80000205F
:103D00002C0000204E000020500000200029818956
:103D100002D041F4005101E021F40051818170474B
:103D2000002A828A01D00A4300E08A4382827047D7
:103D3000FEE700002DE9F04FDFF800B4DFF8009453
:103D400059469BF800304878FE4F0026FE4C897893
:103D500089B04FF0FF35012B06D05A46022B527A1C
:103D600075D0032B74D1ABE19BF807205B465FEA6B
:103D7000427C01D4029503E04FF0010CCDF808C05D
:103D8000920702D40122019200E00195FDF76AFA40
:103D900006901979D878FDF765FA0590D879C106AB
:103DA0000BD4C00706D0009599795879FDF75AFAD7
:103DB000824629E001200090F6E74FF0000AC00794
:103DC00017D0A84699795879FDF74CFA5E719E7123
:103DD000D97908FB00F821F01002DA713988090559
:103DE0000AD56FF0280008FB00F8A06A00EB8800F5
:103DF00009E04FF00108E5E708EBC800A16A00EB15
:103E0000481001EB8000A06205980228607A04D86F
:103E100020F0020040F0010003E020F0010040F03B
:103E20000200607206980228607A04D820F0080028
:103E300040F0040003E020F0040040F0080060724D
:103E4000BAF1020FC0B204D840F0100003E05DE008
:103E500056E020F010006072059901984843FCF785
:103E6000EDFBBA4908600190069902984843FCF7B7
:103E7000E5FBDFF8DC82C8F800000290009800FB48
:103E80000AF0FCF7DBFBB34908600390A6703878B2
:103E900000F00700032833D10120DFF8BCA2A07096
:103EA00051460198FCF750FA0146A848016000917C
:103EB000019151460298FCF747FAC8F80000804685
:103EC00051460398FCF740FAA249A04A08600199BC
:103ED000514502DDC2F800A004E0009B4B4501D92A
:103EE000C2F800909A4A5146884501DD116003E00E
:103EF000C84501D9C2F80090964A884201DD116098
:103F00008CE14845FCD9C2F8009087E15FEA427C29
:103F100002D44FF0010900E0A9465FEA827C02D496
:103F20004FF0010A00E0AA465FEAC27C05D0009586
:103F3000120707D40122059205E04FF0010CCDF8DD
:103F400000C0F5E70595D846FDF78CF900FB09F0B0
:103F5000FCF774FBDFF8F491C9F8000098F804103E
:103F600098F80300FDF77EF900FB0AF0FCF766FB0A
:103F7000DFF8DCA1CAF8000098F8061098F80500F0
:103F8000FDF770F900994843FCF758FB7149086048
:103F900098F8081098F80700FDF764F90599484368
:103FA000FCF74CFB6D49DFF8B8810860D8F80000D9
:103FB000FCF744FBD9F80010FCF7D6FB05D2D8F883
:103FC0000000FCF73BFBC9F80000D8F800004042B5
:103FD000FCF734FBD9F80010FCF7D0FB06D2D8F878
:103FE00000004042FCF72AFBC9F80000C146D8F89F
:103FF0000000FCF723FBD046DAF80010FCF7B4FB16
:1040000005D2D9F80000FCF719FBC8F80000D9F870
:1040100000004042FCF712FBD8F80010FCF7AEFBA2
:1040200006D2D9F800004042FCF708FBC8F80000AF
:10403000C846D9F80000FCF701FBDFF81891D9F861
:104040000010FCF791FB05D2D8F80000FCF7F6FA57
:10405000C9F80000D8F800004042FCF7EFFAD9F8A0
:104060000010FCF78BFB06D2D8F800004042FCF7AA
:10407000E5FAC9F80000C146D8F80000FCF7DEFAFE
:10408000DFF8D880D8F80010FCF76EFB05D2D9F81D
:104090000000FCF7D3FAC8F80000D9F8000040424D
:1040A000FCF7CCFAD8F80010FCF768FB06D2D9F878
:1040B00000004042FCF7C2FAC8F80000A670ADE06C
:1040C0005FEA427C02D44FF0010A00E0AA465FEAB0
:1040D000827C04D44FF0010CCDF808C000E00295BA
:1040E0005FEAC27C05D00095120707D40122059231
:1040F00005E04FF0010CCDF800C0F5E70595D84676
:10410000FDF7B0F800FB0AF0FCF798FA0F490860D9
:1041100098F8041098F80300FDF7A4F802994843B2
:10412000FCF78CFADFF828A0CAF8000098F806100F
:1041300098F80500FDF796F8009913E014020020A6
:104140000000C8C24E000020E0000020AC000020AB
:10415000B0000020B40000200000C842B8000020D9
:10416000440000204843FCF769FAEA49086098F8DF
:10417000081098F80700FDF775F805994843FCF713
:104180005DFA0490E548E4490068FCF7DDF8014673
:10419000E248016001910091DF49DAF80000FCF784
:1041A000D3F88046CAF80000DA48DB490068FCF71B
:1041B000CBF8D84982460860D7490498FCF7C4F880
:1041C000D749D54A08600099914203DD1146D34A88
:1041D000116005E0019BD14A4B4501D9C2F800901E
:1041E000CD49D04A884501DD116003E0C84501D9B9
:1041F000C2F80090C74A8A4501DD116003E0CA4554
:1042000001D9C2F80090C64A884201DD116003E07E
:10421000484501D9C2F800900120A0709BF8000029
:10422000802802D0C82847D1EDE05B469BF80210F9
:104230009BF80100FDF716F8DFF8EC92DFF8EC824E
:10424000DFF8ECA2B0F5004F1FD06FF40041421828
:10425000B8492F2A30D2DFE802F0676D747C848B76
:10426000929AA7B6BCC2D9D9D9D9CFCFCFCFCFCF09
:10427000CFCFCFCFCFCFD9D9CFD2D2D2D9D9D9D909
:10428000D9D9D9D9D9D9D9D9D2001979D878FCF7BF
:10429000E9FFB0F5004F0FD199795879FCF7E2FFAB
:1042A00001280AD002280BD003282AD004282BD0BA
:1042B00005282DD0062830D0A8E0FDF753FBA5E057
:1042C0009D486421016040F6B830C9F800009B4960
:1042D000C8F800109B489A49CAF8006001609B49E1
:1042E000994808609A4908609A493220088040F647
:1042F00012303880A5814FF6FF70E0814FF4FA70DC
:104300006BE0012094497CE0388820F0080002E04E
:10431000388840F00800388078E0388840F008009D
:104320003880E681A58171E099795879FCF79AFF88
:1043300081492AE099795879FCF794FFC9F800007F
:1043400064E0D81CFCF782FFFCF781F9C8F8000094
:104350005CE0D81CFCF77AFFFCF779F9CAF800009A
:1043600054E0D81CFCF772FFFCF771F975490CE0BA
:10437000D81CFCF76BFFFCF76AF9744905E0D81C00
:10438000FCF764FFFCF763F9714908603EE0D81C54
:10439000FCF75CFF6F4980B20880FCF758F96F4961
:1043A000FBF7D2FF606231E099795879FCF75AFF48
:1043B000388041066A4801D5012102E0017821F0E8
:1043C0000101017022E099795879FCF74BFFA08137
:1043D0001CE099795879FCF745FFE06116E01979FE
:1043E000D878FCF73FFF5F49088099795879FCF746
:1043F00039FF5D49088009E000F00F0001E000F09E
:104400002F00087002E00120FEF746F86278D0071E
:104410000DD09BF8001058462170032902D9066080
:104420004660068122F0010060703220E082E1895E
:1044300040F6B83081421BD33888010718D5B4F94B
:104440000C10CA431204120C12D002054748B0F9EE
:104450000400A0EB010000F1070104D50E2907D9E3
:10446000A16A081A03E00E2902D9A16A0844A062D1
:10447000E08AC0B33E49097819B3A6629BF80000F0
:10448000012821D0022801D0032817D12348006831
:10449000FCF7EFF83749086022480068FCF7E9F8B4
:1044A000354908601B480068FCF7E3F833490860A9
:1044B0001B480068FCF7DDF83149086009B0BDE829
:1044C000F08F401EE082D9E73878C00605D4617AC3
:1044D0000520884301D12662A662607AC00603D512
:1044E000606A206202E00CE02662A6620948026867
:1044F0000C4801680948006809B0BDE8F04FFEF7B4
:1045000015B8204800221146067026621046A662A1
:10451000F2E70000B40000200000C842AC00002018
:10452000B8000020B000002048000020300000202B
:104530003400002008000020440000200000A041BA
:104540000000484338000020000040413C000020AB
:10455000400000204C000020070000200050C3470E
:1045600000000020100000200E000020E8010020C4
:104570002B0000208C0000209000002094000020E0
:104580009800002051000020134A414213688B42DA
:1045900000DA11601368834200DD10600F4A13686F
:1045A0008B4200DA11601368834200DD10600C4A10
:1045B00013688B4200DA11601368834200DD1060DB
:1045C000084A13688B4201DB194600E01160814202
:1045D00000DD1060704700007C000020800000209B
:1045E00084000020880000200FB4054B10B503A9FB
:1045F000044A029800F09AF810BC5DF814FB000021
:10460000395A0008C4000020490050EAC12018BFF0
:1046100004204A0D18BF40F0010040F2FF72B2EBD7
:10462000515F08BF40F00200012808BF0520704715
:104630002DE9F0414F1E00EBC7010446D1E900010E
:1046400015461E4637F006020DD02A463346FBF7C4
:104650006CFF7F1E04EBC703D3E90023FBF7BEFE0C
:1046600037F00602F1D1022F25D0042F13D0062FE8
:1046700018BFBDE8F0812A463346FBF756FFD4E960
:104680000A23FBF7ABFE2A463346FBF74EFFD4E97D
:104690000823FBF7A3FE2A463346FBF746FFD4E97F
:1046A0000623FBF79BFE2A463346FBF73EFFD4E981
:1046B0000423FBF793FE2A463346FBF736FFD4E983
:1046C0000223FBF78BFE2A463346FBF72EFFD4E985
:1046D0000023BDE8F041FBF781BE0122FBF797BF45
:1046E000FBF77CBE0022134610461146FCF75CB96E
:1046F000024A00201107FBF78ABF000001FDFFFFFF
:1047000002E008C8121F08C1002AFAD1704770479A
:10471000002001E001C1121F002AFBD170470000F8
:104720000149086070470000100200202DE9FF4F8A
:1047300089B09B460446002506E025280BD05A4642
:104740000B999047641C6D1C20780028F5D10DB0A2
:104750002846BDE8F08F0027B8460122474900E00F
:10476000074314F8013F203B02FA03F00842F7D157
:1047700020782E2819D114F8010F47F004072A28B1
:104780000ED06FF02F022078A0F1300109290CD84B
:1047900008EB880102EB410100EB0108641CF2E721
:1047A0000A98641C50F8048B0A9020780028CED018
:1047B000642808D0692806D075281ED05A460B995F
:1047C00090476D1C58E00A994FF00A0901C90A91F7
:1047D000002802DA40422D2102E0390504D52B21C0
:1047E0008DF82010012103E0F90704D02021F7E71C
:1047F0008A4608AE0DE00021FAE70A994FF00A094F
:1048000001C90A91F7E74946FBF7C2FF303106F8C4
:10481000011D0028F7D1ADEB060000F12009780753
:1048200001D44FF00108C84502DDA8EB090000E003
:1048300000208046002706E008A85A46C05D0B9974
:1048400090476D1C7F1C5745F6DB04E030205A462C
:104850000B9990476D1CB8F10001A8F10108F5DC37
:1048600005E016F8010B5A460B9990476D1CB9F1FB
:104870000001A9F10109F4DC641C65E709280100C5
:104880002DE9FE4F07460E460025684601F0F4F874
:1048900000246FF00F0AE8464FF0010957F8240092
:1048A00056F82410401A00D54042FBF7C7FE514687
:1048B000FBF788FD58F8241011F0FF4F0BD0FBF7E1
:1048C00043FD4FF07E51FBF707FD0A4920F0004001
:1048D000884205DC07E0084908440849884202D3B9
:1048E00009FA04F00543641C032CD7DB2846BDE815
:1048F000FE8F0000295C0F3E666666C19A99D9005A
:104900002DE9F04D8D4F21F0004A86B005460C464A
:10491000BA452ADBAAEB070028430AD0884882451B
:1049200001DC1AD1CDB106B02846BDE8F04DFFF745
:10493000D4BE844A844B2846FBF7F7FD07460E4653
:10494000824A834B28462146FBF7EFFD06B03A46E4
:104950003346BDE8F04DFBF741BD0120FFF7E0FE17
:1049600006B0BDE8F04DFFF7BDBE7A48824542DA99
:10497000BAF1795F0BDA2846FFF746FE042808BF34
:10498000FFF7B6FE284606B02146BDE8F08D2A4660
:104990000B461046FBF7C9FD834602466E480E469D
:1049A0000B4606217844FFF743FE5A463346FBF791
:1049B000BCFD804669488A465A46334604217844FD
:1049C000FFF736FE5A463346FBF7AFFD00223B4663
:1049D000FBF704FD02460B4640465146FBF7E4FF59
:1049E0002A462346FBF7A1FD06B02A462346BDE82A
:1049F000F04DFBF7F3BC284624F0004100223D4671
:104A00003B46FBF78FFD4FF0FF32FBF700FE0646FB
:104A1000024653480F460B4606217844FFF708FE2E
:104A200032463B46FBF781FDCDE900014D48324659
:104A30003B4604217844FFF7FBFD32463B46FBF73B
:104A400074FD00222B46FBF7C9FC834602913046D9
:104A5000394602F0E1FE804643480D46504517DCDA
:104A6000DDE900015A46029BFBF79EFF42462B46BA
:104A7000FBF75BFD42462B46FBF7B0FC0122FBF740
:104A8000C6FD304A304BFBF74AFD304A304B4CE014
:104A90004FF0000A52460B464046FBF79FFCCDE91B
:104AA000031052462B4610461946FBF73EFD324690
:104AB0003B46FBF737FDDDE90332FBF775FF0646A2
:104AC0000F46DDE900015A46029BFBF76DFF834666
:104AD0000091012230463946FBF799FD194A1A4BDD
:104AE000FBF720FD06460F46012240462946FBF70C
:104AF0008EFD5A46009BFBF718FD32463B46FBF7FE
:104B00000EFD06460F46012250462946FBF77FFD63
:104B10000E4DDFF858802A464346FBF703FD324628
:104B20003B46FBF7FFFC2A464346FBF7FBFC002C09
:104B3000D8BF81F0004106B0BDE8F08D0000F03F25
:104B40000000F07F075C143326A6913C182D4454D6
:104B5000FB21F93F0000E03F4047000056470000BE
:104B6000CA460000E04600003333EF3FFB21E93F37
:104B70002DE9F84F04460D4621F00040009173499D
:104B8000814211DC7249884201DC06D12CB12046F9
:104B90002946BDE8F84FFFF7A0BD6E48002DCCBFF9
:104BA0006D496E49BDE8F88F6D49814211DD6D494F
:104BB0008142D8BF4FF0FF366DDD20462946FFF712
:104BC00023FD042808BFFFF793FD20462946BDE8D2
:104BD000F88F6549654F25F00045814233DD644912
:104BE000814219DD002632464FF080432046294697
:104BF000FBF7F4FB80468A46012220462946FBF754
:104C000006FD00223B46FBF78AFC42465346FBF773
:104C1000CBFE04460D463EE001260022BA463B4646
:104C200020462946FBF7DAFB80460F460022534612
:104C300020462946FBF773FC42463B46FBF7B4FE91
:104C400004460D4627E04B4981421BDDDFF828A1D1
:104C500002260022534620462946FBF766FC002226
:104C60003B46FBF7BBFB80460F46002253462046DF
:104C70002946FBF754FC42463B46FBF795FE0446AB
:104C80000D4608E0032622462B4600203B49FBF751
:104C90008BFE04460D4622462B4610461946FBF76E
:104CA00044FC8B46824602460B46FBF73EFC074619
:104CB0000246334888460B4606217844FFF7B8FC85
:104CC00052465B46FBF731FC82462E488B463A46FD
:104CD000434605217844FFF7ABFC3A464346FBF7D1
:104CE00024FC02460B46002E504659460CDAFBF7D0
:104CF00075FB22462B46FBF718FC01B022462B46DB
:104D0000BDE8F04FFBF70EBCFBF768FB22462B46D5
:104D1000FBF70BFC1C4A7A4402EBC603D3E90023E1
:104D2000FBF7FDFB22462B46FBF7F9FB174A7A44BB
:104D300002EBC603D3E90023FBF7F4FB009A002A39
:104D4000B8BF81F00041BDE8F88F000000001044BA
:104D50000000F07F182D4454FB21F93FFB21F9BFDF
:104D60000000DC3F0000203E0000F33F0000F03F69
:104D70000000E63F008003400000F83F0000F0BF65
:104D8000E2440000A04400003E440000064400004D
:104D90002DE9F04D9446CCF1000423F000464CEA96
:104DA0000404594F46EAD4749A46884621F00042DA
:104DB000BC4206D8454240EA050442EAD474BC42EB
:104DC00004D9BDE8F04D6246FFF78ABCAAF1405510
:104DD000A5F17F6555EA0C040BD0022404EAAA74FD
:104DE0004A4DDFF82CE144EAD87452EA000B04D0B3
:104DF0000CE0BDE8F04DFFF7BBBE002C14BF012C4A
:104E0000BDE8F08D022C30D0032C32D056EA0C0BCA
:104E10000AD0BE4220D1BA4209D126F0804622F003
:104E200080423346114617E000291ADB25E0DFF8FF
:104E3000E4B0FB44002C04BFDBE90001BDE8F08DC9
:104E4000012C02BFDBE9000181F00041BDE8F08DDB
:104E5000022C0AD0032C0CD0BA4212D1B8F1000FA8
:104E60000BDA2A482C49BDE8F08D28462B49BDE8CD
:104E7000F08D28467146BDE8F08D24482849BDE8EC
:104E8000F08D921B12153C2AC4BF204F244E10DC1B
:104E9000BAF1000FBEBF12F13C0F00273E4608DBFF
:104EA0006246FBF781FD21F00041FFF761FE0746F6
:104EB0000E4694B1012C08BF86F000460DD0194A69
:104EC000194B022C3846314615D0FBF728FB2A46F1
:104ED000BDE8F04D114BFBF722BB002213463846CC
:104EE0003146FBF721FE04BF0220FFF719FC3846CC
:104EF0003146BDE8F08DFBF712FB2A46BDE8F04DC8
:104F0000064BFBF70FBB00000000F07F182D445448
:104F1000FB2109C09A430000FB21F9BFFB21094096
:104F2000FB21F93F075C143326A6A13C30B5204B8A
:104F3000D3F838411F4900222CB1CA80D3F8385128
:104F4000012425B106E0CC88641CCC80F6E70D78FE
:104F500005B90C704D784DB90D78012D03D18D78C0
:104F60006D1C8D704C708C78022C04D0D3F83831C5
:104F7000012B04D005E08A708A80022030BD0A70BF
:104F80004A708B78012B11D18B885B1C9BB28B8074
:104F9000834206D9CB88834203D28A708A8001205B
:104FA00030BDCB88834201D98A708A80002030BD11
:104FB00000802142C80000204FF0E0210A6922F061
:104FC00004020A610649C00800EB40020870C2EB07
:104FD000C0104FF6FF7202EAC00048807047000020
:104FE000BC00002000EB4001C1EBC0104FF6FF7188
:104FF00001EAC000AFF30080002148E000BF00BF1D
:1050000000BF00BF00BF00BF00BF00BF00BF00BFA8
:1050100000BF00BF00BF00BF00BF00BF00BF00BF98
:1050200000BF00BF00BF00BF00BF00BF00BF00BF88
:1050300000BF00BF00BF00BF00BF00BF00BF00BF78
:1050400000BF00BF00BF00BF00BF00BF00BF00BF68
:1050500000BF00BF00BF00BF00BF00BF00BF00BF58
:1050600000BF00BF00BF00BF00BF00BF00BF00BF48
:1050700000BF00BF00BF00BF00BF00BF00BF00BF38
:1050800000BF00BF00BF00BF00BF00BF491C81427E
:10509000B4D3704710B5002108A20846FDF70AFFF7
:1050A0000AA20A210020FDF705FF0BA2142100200F
:1050B000FDF700FFBDE81040FDF752BE4F6D696E71
:1050C000626F742056312E30000000005665723A2F
:1050D000302E3039000000004349524355532050D0
:1050E0006900000008B560B120208DF8000028207C
:1050F0008DF8010030208DF8020038208DF8030073
:1051000004E0A32204216846FBF775F86A460421EF
:1051100040F69E2001F052FE01F018FB08BD000091
:105120003EB5044602208DF80000CA208DF801002B
:10513000E3208DF8020009208DF803006A4604215F
:10514000682001F03BFEA3208DF80000610609D520
:10515000C0218DF80110C8218DF80210C2218DF8F0
:10516000031005E08DF801008DF802008DF80300B2
:1051700014F4C07F09D0C4218DF80410CC218DF81F
:105180000510C6218DF8061005E08DF804008DF895
:1051900005008DF806008DF808008DF807008DF8E1
:1051A00009006A460A2140F6A72001F007FEA00781
:1051B0004FF0D80503D020208DF8000001E08DF8D5
:1051C00000506A46012140F6B62001F0F7FDA00626
:1051D00001D5012000E0002000F08EF814F4C07F1B
:1051E0001ED0E0050AD5B2208DF800008B208DF886
:1051F0000100B6208DF802009B2009E0B0208DF858
:10520000000080208DF80100B4208DF8020090206D
:105210008DF803006A46042140F6A22001F0CEFD7D
:10522000E1074FF40B6022D0F8218DF800106A4698
:10523000012101F0C3FDFA21072000F049FB0720FE
:1052400000F014FB012000F031FB642000F0D4FBDF
:105250004FF4FA7000F0E0FBC821254800F0CEFAC8
:10526000282000F0E3FA0A2000F0F0FA05E08DF8BB
:1052700000506A46012101F0A1FDA00703D5D92005
:105280008DF8000001E08DF800506A46012140F2DF
:105290003D7001F093FD600701D5012000E0002082
:1052A00000F048F8E00601D5012000E00020FFF7FB
:1052B00019FF104D44F00800688101F047FA002002
:1052C000A873600601D50620A87314F4C07F02D02D
:1052D000A87B801DA87314F0140F02D0A87B103097
:1052E000A873A00702D0A87B001DA87300203EBDB4
:1052F00009E3CA02680A00200EB54FF4976310B1A3
:1053000006A107C901E008A207CA8DE807006A469E
:105310000921184601F052FD0EBD0000B8AAB38D58
:10532000B4980D355D000000B8AAAAAAB088C3C51C
:10533000C700000008B560B1C0208DF80000C22091
:105340008DF80100C4208DF80200C6208DF80300FE
:1053500004E08B2204216846FAF74DFF6A460421D7
:1053600040F6982001F02AFD01F0F0F908BD000098
:10537000C8234FF48062024940F6F63001F0C8B805
:10538000D88400082DE9FF4F89B01746DDE9165291
:105390000024544E884681462C80A246B07B694644
:1053A00001F062F94FF0FF3B18B158460DB0BDE86F
:1053B000F08F708910F0140F4CD0BDF800109DF8DC
:1053C000022049BA090441EA02239DF803100B4365
:1053D0003B60BDF804109DF8062049BA090441EA73
:1053E00002229DF807101B140A437A60BDF80810CA
:1053F0009DF80A4049BA090441EA04219DF80B408E
:1054000012142143B960BDF80C409DF80EC064BA77
:10541000240444EA0C2C9DF80F4009144CEA040CB7
:10542000C7F80CC04FEA2C475B43494302FB0232EA
:1054300007FB071111441024A1F17061B1F1007F45
:1054400004D901F083F9A5F800A0AEE7298841F45A
:10545000807129804206694611D50A19A41D138856
:105460005BBAA8F8003053885BBAA8F8023092887B
:1054700052BAA8F804202A8842F008022A8010F4C0
:10548000C07F11D00A19A41D13885BBAA9F8003097
:1054900053885BBAA9F80230928852BAA9F804205E
:1054A0002A8842F070022A80800716D00C44E078E7
:1054B00000F0C00500F03F016078C00706D0C808C2
:1054C00001F007013268491C02B19047607800077B
:1054D00003D5716809B1A80988470C9801F09DFCB3
:1054E000002063E7680A00202DE9FF41044603A875
:1054F00000F0C4FEBDF80C00410CC3032F48008926
:1055000000F0030254F82250420700D56D42C0F368
:10551000C102860654F8222000D55242C0F38116FB
:10552000C00554F8264000D56442A5FB0367E81780
:1055300000FB037005FB0100850045EA9670A2FBA5
:105540000367D51705FB037502FB0152950045EA79
:105550009672A4FB0367E51705FB037304FB013197
:105560008B0043EA9671030E8DF80030030C8DF822
:105570000130030A8DF802308DF80300100E8DF80B
:105580000400100C8DF80500100A8DF80600080EB6
:105590008DF80800080C8DF80900080A8DF80A003B
:1055A0008DF807208DF80B106A460C214FF42570FA
:1055B00001F004FC04B0BDE8F0810000680A00209E
:1055C00030B5044613A285B007CA8DE807004FF036
:1055D000FF35C82C16D8C820B0FBF4F1491E080AC4
:1055E0008DF80C008DF80D1003AA022140F2162050
:1055F00001F0E4FB30B96A460C2140F6C12001F00D
:10560000DDFB10B1284605B030BD0548848100207F
:10561000F9E70000FEF2ABC4AAF1DFDFBBAFDFDFCA
:10562000680A0020F8B53049098901F0030250F8F2
:1056300022404A0700D56442C1F3C1028B0650F8EC
:10564000222000D55242C1F3811350F82330C805FF
:1056500000D55B42254984FB0140850045EA9470F2
:1056600082FB0142A40F44EA820483FB0121950FCF
:1056700045EA8105010E8DF80010010C8DF801102E
:10568000010A8DF802108DF803006A4604214FF4D8
:10569000747001F093FB4FF0FF3688B9200E8DF83F
:1056A0000000200C8DF80100200A8DF802008DF812
:1056B00003406A4604214FF4757001F07FFB08B186
:1056C0003046F8BD280E8DF80000280C8DF801003A
:1056D000280A8DF802008DF803506A4604214FF421
:1056E000767001F06BFBF8BD680A002009E3CA027E
:1056F0002DE9FF4104463CA004F00303006802903A
:105700003AA0006803903AA006683AA0056802A88B
:10571000C15C8DF80010C4F3C101425C8DF801201A
:10572000C4F38112805C8DF8020003A8C35C8DF87D
:105730000430415C8DF80510805C8DF806006A46E7
:10574000032140F2264001F039FB4FF0FF37E0BB68
:1057500001AA032140F22A4001F030FBA8BBCDE9A9
:10576000006560070BD59DF8000040F001008DF842
:1057700000009DF8040040F001008DF80400A00630
:105780000BD59DF8010040F001008DF801009DF857
:10579000050040F001008DF80500E0050BD59DF8EF
:1057A000020040F001008DF802009DF8060040F074
:1057B00001008DF806006A4603214FF4886001F06D
:1057C000FDFA10B901AA032100E004E040F23140E3
:1057D00001F0F4FA18B1384604B0BDE8F08106488B
:1057E00004810020F8E700004CCD6C000CC92C00AF
:1057F0003656760026466600680A00204FF47A7214
:1058000090FBF2F008B54843010E8DF80010010C32
:105810008DF80110010A8DF802108DF803006A4618
:1058200004214FF4AE7001F0C9FA08BD0521B0FBA8
:10583000F1F008B5010A8DF800108DF801006A46F4
:1058400002214FF4AD7001F0B9FA08BD0521B0FB9B
:10585000F1F008B5010A8DF800108DF801006A46D4
:1058600002214FF4AC7001F0A9FA08BD08B500217F
:105870008DF80010C10702D030218DF8001081078B
:1058800005D59DF8001041F00C018DF8001040077F
:1058900005D59DF8000040F003008DF800006A4631
:1058A00001214FF4A47001F089FA08BD08B560B178
:1058B000042800D90420401E8DF800006A4601210A
:1058C00040F24F1001F07AFA08BD0120F3E7000022
:1058D0002DE9FC41054640074FF0FF367CD0B1F57D
:1058E000C86F79D80846FAF7B2FE3E49FAF72CFDA0
:1058F000074601A800F0A4FC9DF80400022806D089
:1059000004280DD008282ED0102865D134E00E21AF
:105910003846FAF757FDFAF7C5FE84B2324907E078
:105920000D213846FAF74EFDFAF7BCFE2F4984B236
:105930003846FAF7D7FCFAF7B5FE210A8DF80010C1
:1059400080B28DF80140010A8DF802108DF8030035
:10595000E8076C4620D0224602214FF4EA7001F09D
:105960002DFAC8BB11E00C213846FAF72BFDFAF7E7
:1059700099FE84B21E49DBE70B213846FAF722FD77
:10598000FAF790FE84B21B49D2E7A21C02214FF421
:10599000927001F013FAF8B9A8070DD56A460221F2
:1059A0004FF4EC7001F00AFAB0B9A21C02214FF4D6
:1059B000947001F003FA78B9680710D56A4602219D
:1059C0004FF4EE7001F0FAF930B9A21C02214FF445
:1059D000967001F0F3F910B13046BDE8FC8100206B
:1059E000FBE7000000004843000040460000C045BF
:1059F000000040450000C0440521B0FBF1F008B5AF
:105A0000010A8DF800108DF801006A4602214FF45A
:105A1000EF7001F0D3F908BD0521B0FBF1F008B536
:105A2000010A8DF800108DF801006A4602214FF43A
:105A3000ED7001F0C3F908BD0B4909780A06C1B23F
:105A40000AD50A4A12783AB1094A13885B06FCD58E
:105A5000074A121D11807047064A13885B06FCD561
:105A6000044A121DF6E700004E0000202C00002022
:105A700000440040004800402DE9FE430646264809
:105A800001AB042240680D21007800F03FFA10B10C
:105A90000720BDE8FE839DF804101C2000EAD10217
:105AA0009DF80710DFF87490C1F301131A438DF8C5
:105AB00000209DF80520C1F3810300EAD2021A43B9
:105AC0008DF801209DF8062001F0030100EAD200C4
:105AD00008430024124F8DF80200A0466D46285D51
